{
  "address": "0xDc64a140Aa3E981100a9becA4E685f962f0cF6C9",
  "abi": [
    {
      "inputs": [
        {
          "internalType": "uint32",
          "name": "_levels",
          "type": "uint32"
        },
        {
          "internalType": "contract IHasher",
          "name": "_hasher",
          "type": "address"
        },
        {
          "internalType": "contract IVerifier",
          "name": "_verifier",
          "type": "address"
        },
        {
          "internalType": "uint256",
          "name": "_numOptions",
          "type": "uint256"
        }
      ],
      "stateMutability": "nonpayable",
      "type": "constructor"
    },
    {
      "anonymous": false,
      "inputs": [
        {
          "indexed": true,
          "internalType": "bytes32",
          "name": "commitment",
          "type": "bytes32"
        },
        {
          "indexed": false,
          "internalType": "uint32",
          "name": "leafIndex",
          "type": "uint32"
        },
        {
          "indexed": false,
          "internalType": "uint256",
          "name": "timestamp",
          "type": "uint256"
        }
      ],
      "name": "Commit",
      "type": "event"
    },
    {
      "inputs": [],
      "name": "FIELD_SIZE",
      "outputs": [
        {
          "internalType": "uint256",
          "name": "",
          "type": "uint256"
        }
      ],
      "stateMutability": "view",
      "type": "function"
    },
    {
      "inputs": [],
      "name": "ROOT_HISTORY_SIZE",
      "outputs": [
        {
          "internalType": "uint32",
          "name": "",
          "type": "uint32"
        }
      ],
      "stateMutability": "view",
      "type": "function"
    },
    {
      "inputs": [],
      "name": "ZERO_VALUE",
      "outputs": [
        {
          "internalType": "uint256",
          "name": "",
          "type": "uint256"
        }
      ],
      "stateMutability": "view",
      "type": "function"
    },
    {
      "inputs": [
        {
          "internalType": "bytes32",
          "name": "",
          "type": "bytes32"
        }
      ],
      "name": "commitments",
      "outputs": [
        {
          "internalType": "bool",
          "name": "",
          "type": "bool"
        }
      ],
      "stateMutability": "view",
      "type": "function"
    },
    {
      "inputs": [],
      "name": "currentRootIndex",
      "outputs": [
        {
          "internalType": "uint32",
          "name": "",
          "type": "uint32"
        }
      ],
      "stateMutability": "view",
      "type": "function"
    },
    {
      "inputs": [
        {
          "internalType": "uint256",
          "name": "",
          "type": "uint256"
        }
      ],
      "name": "filledSubtrees",
      "outputs": [
        {
          "internalType": "bytes32",
          "name": "",
          "type": "bytes32"
        }
      ],
      "stateMutability": "view",
      "type": "function"
    },
    {
      "inputs": [],
      "name": "getLastRoot",
      "outputs": [
        {
          "internalType": "bytes32",
          "name": "",
          "type": "bytes32"
        }
      ],
      "stateMutability": "view",
      "type": "function"
    },
    {
      "inputs": [
        {
          "internalType": "uint256",
          "name": "_option",
          "type": "uint256"
        }
      ],
      "name": "getOptionCounter",
      "outputs": [
        {
          "internalType": "uint256",
          "name": "",
          "type": "uint256"
        }
      ],
      "stateMutability": "view",
      "type": "function"
    },
    {
      "inputs": [
        {
          "internalType": "uint256",
          "name": "_left",
          "type": "uint256"
        },
        {
          "internalType": "uint256",
          "name": "_right",
          "type": "uint256"
        }
      ],
      "name": "hashLeftRight",
      "outputs": [
        {
          "internalType": "bytes32",
          "name": "",
          "type": "bytes32"
        }
      ],
      "stateMutability": "view",
      "type": "function"
    },
    {
      "inputs": [],
      "name": "hasher",
      "outputs": [
        {
          "internalType": "contract IHasher",
          "name": "",
          "type": "address"
        }
      ],
      "stateMutability": "view",
      "type": "function"
    },
    {
      "inputs": [
        {
          "internalType": "bytes32",
          "name": "_root",
          "type": "bytes32"
        }
      ],
      "name": "isKnownRoot",
      "outputs": [
        {
          "internalType": "bool",
          "name": "",
          "type": "bool"
        }
      ],
      "stateMutability": "view",
      "type": "function"
    },
    {
      "inputs": [],
      "name": "levels",
      "outputs": [
        {
          "internalType": "uint32",
          "name": "",
          "type": "uint32"
        }
      ],
      "stateMutability": "view",
      "type": "function"
    },
    {
      "inputs": [],
      "name": "nextIndex",
      "outputs": [
        {
          "internalType": "uint32",
          "name": "",
          "type": "uint32"
        }
      ],
      "stateMutability": "view",
      "type": "function"
    },
    {
      "inputs": [
        {
          "internalType": "bytes32",
          "name": "",
          "type": "bytes32"
        }
      ],
      "name": "nullifiers",
      "outputs": [
        {
          "internalType": "bool",
          "name": "",
          "type": "bool"
        }
      ],
      "stateMutability": "view",
      "type": "function"
    },
    {
      "inputs": [],
      "name": "owner",
      "outputs": [
        {
          "internalType": "address",
          "name": "",
          "type": "address"
        }
      ],
      "stateMutability": "view",
      "type": "function"
    },
    {
      "inputs": [
        {
          "internalType": "uint256",
          "name": "_uniqueHash",
          "type": "uint256"
        },
        {
          "internalType": "uint256",
          "name": "_commitment",
          "type": "uint256"
        }
      ],
      "name": "registerCommitment",
      "outputs": [],
      "stateMutability": "nonpayable",
      "type": "function"
    },
    {
      "inputs": [
        {
          "internalType": "address",
          "name": "_validator",
          "type": "address"
        }
      ],
      "name": "registerValidator",
      "outputs": [],
      "stateMutability": "nonpayable",
      "type": "function"
    },
    {
      "inputs": [
        {
          "internalType": "uint256",
          "name": "",
          "type": "uint256"
        }
      ],
      "name": "roots",
      "outputs": [
        {
          "internalType": "bytes32",
          "name": "",
          "type": "bytes32"
        }
      ],
      "stateMutability": "view",
      "type": "function"
    },
    {
      "inputs": [
        {
          "internalType": "address",
          "name": "",
          "type": "address"
        }
      ],
      "name": "validators",
      "outputs": [
        {
          "internalType": "bool",
          "name": "",
          "type": "bool"
        }
      ],
      "stateMutability": "view",
      "type": "function"
    },
    {
      "inputs": [],
      "name": "verifier",
      "outputs": [
        {
          "internalType": "contract IVerifier",
          "name": "",
          "type": "address"
        }
      ],
      "stateMutability": "view",
      "type": "function"
    },
    {
      "inputs": [
        {
          "internalType": "uint256",
          "name": "_option",
          "type": "uint256"
        },
        {
          "internalType": "uint256",
          "name": "_nullifier",
          "type": "uint256"
        },
        {
          "internalType": "uint256",
          "name": "_root",
          "type": "uint256"
        },
        {
          "internalType": "uint256[2]",
          "name": "_proof_a",
          "type": "uint256[2]"
        },
        {
          "internalType": "uint256[2][2]",
          "name": "_proof_b",
          "type": "uint256[2][2]"
        },
        {
          "internalType": "uint256[2]",
          "name": "_proof_c",
          "type": "uint256[2]"
        }
      ],
      "name": "vote",
      "outputs": [],
      "stateMutability": "nonpayable",
      "type": "function"
    },
    {
      "inputs": [
        {
          "internalType": "uint256",
          "name": "i",
          "type": "uint256"
        }
      ],
      "name": "zeros",
      "outputs": [
        {
          "internalType": "bytes32",
          "name": "",
          "type": "bytes32"
        }
      ],
      "stateMutability": "pure",
      "type": "function"
    }
  ],
  "transactionHash": "0x9fe82319674d8332049f5395dcd52b243ad37f0b8ac56efe386f4d81438c978f",
  "args": [
    20,
    "0x9fE46736679d2D9a65F0992F2272dE9f3c7fa6e0",
    "0xCf7Ed3AccA5a467e9e704C703E8D87F634fB0Fc9",
    4
  ],
  "numDeployments": 1,
  "solcInputHash": "8a5a981309e5e64376dbed2859b25437",
  "bytecode": "0x60c0604052600380546001600160401b03191690553480156200002157600080fd5b506040516200218338038062002183833981016040819052620000449162000890565b838383828260008263ffffffff1611620000b15760405162461bcd60e51b815260206004820152602360248201527f5f6c6576656c732073686f756c642062652067726561746572207468616e207a60448201526265726f60e81b60648201526084015b60405180910390fd5b60208263ffffffff1610620001095760405162461bcd60e51b815260206004820152601e60248201527f5f6c6576656c732073686f756c64206265206c657373207468616e20333200006044820152606401620000a8565b6000805463ffffffff191663ffffffff84161781556001600160a01b0382166080525b8263ffffffff168163ffffffff1610156200017d576200015263ffffffff82166200022e565b63ffffffff821660009081526001602052604090205580620001748162000908565b9150506200012c565b506200019b6200018f6001846200092e565b63ffffffff166200022e565b600080805260026020527fac33ff75c19e70fe83507db0d683fd3465c996598dc972688b7ace676c89077b919091556001600160a01b0390931660a0525050600680546001600160a01b0319163317905560098490559150505b600954811162000223576000818152600a6020526040812055806200021a8162000955565b915050620001f5565b505050505062000971565b6000816000036200026057507f2fe54c60d3acabf3343a35b6eba15db4821b340f76e741e2249685ed4899af6c919050565b816001036200029057507f256a6135777eee2fd26f54b8b7037a25439d5235caee224154186d2b8a52e31d919050565b81600203620002c057507f1151949895e82ab19924de92c40a3d6f7bcb60d92b00504b8199613683f0c200919050565b81600303620002f057507f20121ee811489ff8d61f09fb89e313f14959a0f28bb428a20dba6b0b068b3bdb919050565b816004036200032057507f0a89ca6ffa14cc462cfedb842c30ed221a50a3d6bf022a6a57dc82ab24c157c9919050565b816005036200035057507f24ca05c2b5cd42e890d6be94c68d0689f4f21c9cec9c0f13fe41d566dfb54959919050565b816006036200038057507f1ccb97c932565a92c60156bdba2d08f3bf1377464e025cee765679e604a7315c919050565b81600703620003b057507f19156fbd7d1a8bf5cba8909367de1b624534ebab4f0f79e003bccdd1b182bdb4919050565b81600803620003e057507f261af8c1f0912e465744641409f622d466c3920ac6e5ff37e36604cb11dfff80919050565b816009036200040f57507e58459724ff6ca5a1652fcbc3e82b93895cf08e975b19beab3f54c217d1c007919050565b81600a036200043f57507f1f04ef20dee48d39984d8eabe768a70eafa6310ad20849d4573c3c40c2ad1e30919050565b81600b036200046f57507f1bea3dec5dab51567ce7e200a30f7ba6d4276aeaa53e2686f962a46c66d511e5919050565b81600c036200049f57507f0ee0f941e2da4b9e31c3ca97a40d8fa9ce68d97c084177071b3cb46cd3372f0f919050565b81600d03620004cf57507f1ca9503e8935884501bbaf20be14eb4c46b89772c97b96e3b2ebf3a36a948bbd919050565b81600e03620004ff57507f133a80e30697cd55d8f7d4b0965b7be24057ba5dc3da898ee2187232446cb108919050565b81600f036200052f57507f13e6d8fc88839ed76e182c2a779af5b2c0da9dd18c90427a644f7e148a6253b6919050565b816010036200055f57507f1eb16b057a477f4bc8f572ea6bee39561098f78f15bfb3699dcbb7bd8db61854919050565b816011036200058f57507f0da2cb16a1ceaabf1c16b838f7a9e3f2a3a3088d9e0a6debaa748114620696ea919050565b81601203620005bf57507f24a3b3d822420b14b5d8cb6c28a574f01e98ea9e940551d2ebd75cee12649f9d919050565b81601303620005ef57507f198622acbd783d1b0d9064105b1fc8e4d8889de95c4c519b3f635809fe6afc05919050565b816014036200061f57507f29d7ed391256ccc3ea596c86e933b89ff339d25ea8ddced975ae2fe30b5296d4919050565b816015036200064f57507f19be59f2f0413ce78c0c3703a3a5451b1d7f39629fa33abd11548a76065b2967919050565b816016036200067f57507f1ff3f61797e538b70e619310d33f2a063e7eb59104e112e95738da1254dc3453919050565b81601703620006af57507f10c16ae9959cf8358980d9dd9616e48228737310a10e2b6b731c1a548f036c48919050565b81601803620006df57507f0ba433a63174a90ac20992e75e3095496812b652685b5e1a2eae0b1bf4e8fcd1919050565b816019036200070f57507f019ddb9df2bc98d987d0dfeca9d2b643deafab8f7036562e627c3667266a044c919050565b81601a036200073f57507f2d3c88b23175c5a5565db928414c66d1912b11acf974b2e644caaac04739ce99919050565b81601b036200076f57507f2eab55f6ae4e66e32c5189eed5c470840863445760f5ed7e7b69b2a62600f354919050565b81601c036200079e57507e2df37a2642621802383cf952bf4dd1f32e05433beeb1fd41031fb7eace979d919050565b81601d03620007ce57507f104aeb41435db66c3e62feccc1d6f5d98d0a0ed75d1374db457cf462e3a1f427919050565b81601e03620007fe57507f1f3c6fd858e9a7d4b0d1f38e256a09d81d5a5e3c963987e2d4b814cfab7c6ebb919050565b81601f036200082e57507f2c7a07d20dff79d01fecedc1134284a8d08436606c93693b67e333f671bf69cc919050565b60405162461bcd60e51b815260206004820152601360248201527f496e646578206f7574206f6620626f756e6473000000000000000000000000006044820152606401620000a8565b6001600160a01b03811681146200088d57600080fd5b50565b60008060008060808587031215620008a757600080fd5b845163ffffffff81168114620008bc57600080fd5b6020860151909450620008cf8162000877565b6040860151909350620008e28162000877565b6060959095015193969295505050565b634e487b7160e01b600052601160045260246000fd5b600063ffffffff808316818103620009245762000924620008f2565b6001019392505050565b63ffffffff8281168282160390808211156200094e576200094e620008f2565b5092915050565b6000600182016200096a576200096a620008f2565b5060010190565b60805160a0516117d7620009ac60003960008181610199015261102a015260008181610351015281816105ae015261065e01526117d76000f3fe608060405234801561001057600080fd5b50600436106101425760003560e01c80639fca5169116100b8578063e82955881161007c578063e829558814610312578063ec73295914610325578063ed33639f1461034c578063f178e47c14610373578063fa52c7d814610393578063fc7e9c6f146103b657600080fd5b80639fca5169146102a7578063ba70f757146102ba578063c2b40ae4146102d7578063cd87a3b4146102f7578063ce8f6377146102ff57600080fd5b80635bb939951161010a5780635bb939951461021b5780636d9833e31461022e578063839df945146102415780638da5cb5b1461026457806390eeb02b14610277578063955e03771461028757600080fd5b80631407beb8146101475780632997e86b1461015c5780632b7ac3f314610194578063414a37ba146101d35780634ecf518b146101f6575b600080fd5b61015a6101553660046112d1565b6103ce565b005b61017f61016a3660046112f3565b60046020526000908152604090205460ff1681565b60405190151581526020015b60405180910390f35b6101bb7f000000000000000000000000000000000000000000000000000000000000000081565b6040516001600160a01b03909116815260200161018b565b6101e860008051602061178283398151915281565b60405190815260200161018b565b6000546102069063ffffffff1681565b60405163ffffffff909116815260200161018b565b6101e86102293660046112d1565b6104c0565b61017f61023c3660046112f3565b6106dc565b61017f61024f3660046112f3565b60056020526000908152604090205460ff1681565b6006546101bb906001600160a01b031681565b6003546102069063ffffffff1681565b6101e86102953660046112f3565b6000908152600a602052604090205490565b61015a6102b536600461130c565b61075a565b60035463ffffffff166000908152600260205260409020546101e8565b6101e86102e53660046112f3565b60026020526000908152604090205481565b610206601e81565b61015a61030d3660046113c3565b6107d8565b6101e86103203660046112f3565b61085d565b6101e87f2fe54c60d3acabf3343a35b6eba15db4821b340f76e741e2249685ed4899af6c81565b6101bb7f000000000000000000000000000000000000000000000000000000000000000081565b6101e86103813660046112f3565b60016020526000908152604090205481565b61017f6103a136600461130c565b60076020526000908152604090205460ff1681565b60035461020690640100000000900463ffffffff1681565b3360009081526007602052604090205460ff166104325760405162461bcd60e51b815260206004820152601a60248201527f4f6e6c792076616c696461746f722063616e20636f6d6d69742100000000000060448201526064015b60405180910390fd5b60008281526008602052604090205460ff161561049b5760405162461bcd60e51b815260206004820152602160248201527f5468697320756e69717565206861736820697320616c726561647920757365646044820152602160f81b6064820152608401610429565b6104a481610e7b565b506000908152600860205260409020805460ff19166001179055565b6000600080516020611782833981519152831061051f5760405162461bcd60e51b815260206004820181905260248201527f5f6c6566742073686f756c6420626520696e7369646520746865206669656c646044820152606401610429565b60008051602061178283398151915282106105865760405162461bcd60e51b815260206004820152602160248201527f5f72696768742073686f756c6420626520696e7369646520746865206669656c6044820152601960fa1b6064820152608401610429565b604051633f1a118760e01b8152600481018490526000602482018190526044820181905284917f00000000000000000000000000000000000000000000000000000000000000006001600160a01b031690633f1a1187906064016040805180830381865afa1580156105fc573d6000803e3d6000fd5b505050506040513d601f19601f82011682018060405250810190610620919061146d565b9092509050600080516020611782833981519152848308604051633f1a118760e01b81526004810182905260248101839052600060448201529092507f00000000000000000000000000000000000000000000000000000000000000006001600160a01b031690633f1a1187906064016040805180830381865afa1580156106ac573d6000803e3d6000fd5b505050506040513d601f19601f820116820180604052508101906106d0919061146d565b50925050505b92915050565b60008181036106ed57506000919050565b60035463ffffffff16805b63ffffffff8116600090815260026020526040902054840361071e575060019392505050565b8063ffffffff166000036107305750601e5b8061073a816114bd565b9150508163ffffffff168163ffffffff16036106f8575060009392505050565b6006546001600160a01b031633146107b45760405162461bcd60e51b815260206004820152601d60248201527f4f6e6c79206f776e65722063616e206164642076616c696461746f72210000006044820152606401610429565b6001600160a01b03166000908152600760205260409020805460ff19166001179055565b60095486111561081c5760405162461bcd60e51b815260206004820152600f60248201526e496e76616c6964206f7074696f6e2160881b6044820152606401610429565b6108298585858585610f4d565b6000868152600a60205260409020546108439060016114dd565b6000968752600a6020526040909620959095555050505050565b60008160000361088e57507f2fe54c60d3acabf3343a35b6eba15db4821b340f76e741e2249685ed4899af6c919050565b816001036108bd57507f256a6135777eee2fd26f54b8b7037a25439d5235caee224154186d2b8a52e31d919050565b816002036108ec57507f1151949895e82ab19924de92c40a3d6f7bcb60d92b00504b8199613683f0c200919050565b8160030361091b57507f20121ee811489ff8d61f09fb89e313f14959a0f28bb428a20dba6b0b068b3bdb919050565b8160040361094a57507f0a89ca6ffa14cc462cfedb842c30ed221a50a3d6bf022a6a57dc82ab24c157c9919050565b8160050361097957507f24ca05c2b5cd42e890d6be94c68d0689f4f21c9cec9c0f13fe41d566dfb54959919050565b816006036109a857507f1ccb97c932565a92c60156bdba2d08f3bf1377464e025cee765679e604a7315c919050565b816007036109d757507f19156fbd7d1a8bf5cba8909367de1b624534ebab4f0f79e003bccdd1b182bdb4919050565b81600803610a0657507f261af8c1f0912e465744641409f622d466c3920ac6e5ff37e36604cb11dfff80919050565b81600903610a3457507e58459724ff6ca5a1652fcbc3e82b93895cf08e975b19beab3f54c217d1c007919050565b81600a03610a6357507f1f04ef20dee48d39984d8eabe768a70eafa6310ad20849d4573c3c40c2ad1e30919050565b81600b03610a9257507f1bea3dec5dab51567ce7e200a30f7ba6d4276aeaa53e2686f962a46c66d511e5919050565b81600c03610ac157507f0ee0f941e2da4b9e31c3ca97a40d8fa9ce68d97c084177071b3cb46cd3372f0f919050565b81600d03610af057507f1ca9503e8935884501bbaf20be14eb4c46b89772c97b96e3b2ebf3a36a948bbd919050565b81600e03610b1f57507f133a80e30697cd55d8f7d4b0965b7be24057ba5dc3da898ee2187232446cb108919050565b81600f03610b4e57507f13e6d8fc88839ed76e182c2a779af5b2c0da9dd18c90427a644f7e148a6253b6919050565b81601003610b7d57507f1eb16b057a477f4bc8f572ea6bee39561098f78f15bfb3699dcbb7bd8db61854919050565b81601103610bac57507f0da2cb16a1ceaabf1c16b838f7a9e3f2a3a3088d9e0a6debaa748114620696ea919050565b81601203610bdb57507f24a3b3d822420b14b5d8cb6c28a574f01e98ea9e940551d2ebd75cee12649f9d919050565b81601303610c0a57507f198622acbd783d1b0d9064105b1fc8e4d8889de95c4c519b3f635809fe6afc05919050565b81601403610c3957507f29d7ed391256ccc3ea596c86e933b89ff339d25ea8ddced975ae2fe30b5296d4919050565b81601503610c6857507f19be59f2f0413ce78c0c3703a3a5451b1d7f39629fa33abd11548a76065b2967919050565b81601603610c9757507f1ff3f61797e538b70e619310d33f2a063e7eb59104e112e95738da1254dc3453919050565b81601703610cc657507f10c16ae9959cf8358980d9dd9616e48228737310a10e2b6b731c1a548f036c48919050565b81601803610cf557507f0ba433a63174a90ac20992e75e3095496812b652685b5e1a2eae0b1bf4e8fcd1919050565b81601903610d2457507f019ddb9df2bc98d987d0dfeca9d2b643deafab8f7036562e627c3667266a044c919050565b81601a03610d5357507f2d3c88b23175c5a5565db928414c66d1912b11acf974b2e644caaac04739ce99919050565b81601b03610d8257507f2eab55f6ae4e66e32c5189eed5c470840863445760f5ed7e7b69b2a62600f354919050565b81601c03610db057507e2df37a2642621802383cf952bf4dd1f32e05433beeb1fd41031fb7eace979d919050565b81601d03610ddf57507f104aeb41435db66c3e62feccc1d6f5d98d0a0ed75d1374db457cf462e3a1f427919050565b81601e03610e0e57507f1f3c6fd858e9a7d4b0d1f38e256a09d81d5a5e3c963987e2d4b814cfab7c6ebb919050565b81601f03610e3d57507f2c7a07d20dff79d01fecedc1134284a8d08436606c93693b67e333f671bf69cc919050565b60405162461bcd60e51b8152602060048201526013602482015272496e646578206f7574206f6620626f756e647360681b6044820152606401610429565b60008181526005602052604090205460ff1615610ee45760405162461bcd60e51b815260206004820152602160248201527f54686520636f6d6d69746d656e7420686173206265656e207375626d697474656044820152601960fa1b6064820152608401610429565b6000818152600560205260408120805460ff19166001179055610f06826110ff565b6040805163ffffffff8316815242602082015291925083917f401999886e5f90a91b92a0bfb7e2d48f714651a4d1c929bb3a753525ba066b91910160405180910390a25050565b60008581526004602052604090205460ff1615610fac5760405162461bcd60e51b815260206004820181905260248201527f546865206e756c6c696669657220686173206265656e207375626d69747465646044820152606401610429565b610fb5846106dc565b6110015760405162461bcd60e51b815260206004820152601c60248201527f43616e6e6f742066696e6420796f7572206d65726b6c6520726f6f74000000006044820152606401610429565b604080518082018252868152602081018690529051637ae4eb4f60e11b81526001600160a01b037f0000000000000000000000000000000000000000000000000000000000000000169163f5c9d69e9161106391879187918791600401611519565b602060405180830381865afa158015611080573d6000803e3d6000fd5b505050506040513d601f19601f820116820180604052508101906110a491906115a4565b6110e05760405162461bcd60e51b815260206004820152600d60248201526c24b73b30b634b210383937b7b360991b6044820152606401610429565b505050600091825250600460205260409020805460ff19166001179055565b60035460008054909163ffffffff640100000000909104811691611125911660026116d7565b63ffffffff168163ffffffff16036111985760405162461bcd60e51b815260206004820152603060248201527f4d65726b6c6520747265652069732066756c6c2e204e6f206d6f7265206c656160448201526f1d995cc818d85b88189948185919195960821b6064820152608401610429565b8083600080805b60005463ffffffff9081169082161015611243576111be6002866116f4565b63ffffffff166000036111fc578392506111dd8163ffffffff1661085d565b63ffffffff821660009081526001602052604090208590559150611218565b63ffffffff811660009081526001602052604090205492508391505b61122283836104c0565b935061122f600286611717565b94508061123b8161173a565b91505061119f565b50600354600090601e9061125e9063ffffffff16600161175d565b61126891906116f4565b6003805463ffffffff191663ffffffff83169081179091556000908152600260205260409020859055905061129e86600161175d565b6003805463ffffffff929092166401000000000267ffffffff000000001990921691909117905550939695505050505050565b600080604083850312156112e457600080fd5b50508035926020909101359150565b60006020828403121561130557600080fd5b5035919050565b60006020828403121561131e57600080fd5b81356001600160a01b038116811461133557600080fd5b9392505050565b6040805190810167ffffffffffffffff8111828210171561136d57634e487b7160e01b600052604160045260246000fd5b60405290565b600082601f83011261138457600080fd5b61138c61133c565b80604084018581111561139e57600080fd5b845b818110156113b85780358452602093840193016113a0565b509095945050505050565b60008060008060008061016087890312156113dd57600080fd5b86359550602080880135955060408089013595506113fe8a60608b01611373565b94508960bf8a011261140f57600080fd5b61141761133c565b806101208b018c81111561142a57600080fd5b60a08c015b8181101561144e576114418e82611373565b845292850192840161142f565b5081965061145c8d82611373565b955050505050509295509295509295565b6000806040838503121561148057600080fd5b505080516020909101519092909150565b634e487b7160e01b600052601260045260246000fd5b634e487b7160e01b600052601160045260246000fd5b600063ffffffff8216806114d3576114d36114a7565b6000190192915050565b808201808211156106d6576106d66114a7565b8060005b60028110156115135781518452602093840193909101906001016114f4565b50505050565b610140810161152882876114f0565b6040808301866000805b6002808210611541575061157b565b835185845b83811015611564578251825260209283019290910190600101611546565b505050938501935060209290920191600101611532565b505050505061158d60c08301856114f0565b61159b6101008301846114f0565b95945050505050565b6000602082840312156115b657600080fd5b8151801515811461133557600080fd5b600181815b80851115611603578163ffffffff048211156115e9576115e96114a7565b808516156115f657918102915b93841c93908002906115cb565b509250929050565b60008261161a575060016106d6565b81611627575060006106d6565b816001811461163d576002811461164757611678565b60019150506106d6565b60ff841115611658576116586114a7565b6001841b915063ffffffff821115611672576116726114a7565b506106d6565b5060208310610133831016604e8410600b84101617156116af575081810a63ffffffff8111156116aa576116aa6114a7565b6106d6565b6116b983836115c6565b8063ffffffff048211156116cf576116cf6114a7565b029392505050565b600063ffffffff6116ec81851682851661160b565b949350505050565b600063ffffffff8084168061170b5761170b611491565b92169190910692915050565b600063ffffffff8084168061172e5761172e611491565b92169190910492915050565b600063ffffffff808316818103611753576117536114a7565b6001019392505050565b63ffffffff81811683821601908082111561177a5761177a6114a7565b509291505056fe30644e72e131a029b85045b68181585d2833e84879b9709143e1f593f0000001a2646970667358221220812bf8ba71834d6a14ed486bb68d78e86cd55f75d6c27f33c8b29326f16542ea64736f6c63430008110033",
  "devdoc": {
    "kind": "dev",
    "methods": {
      "getLastRoot()": {
        "details": "Returns the last root"
      },
      "hashLeftRight(uint256,uint256)": {
        "details": "Hash 2 tree leaves, returns MiMC(_left, _right)"
      },
      "isKnownRoot(bytes32)": {
        "details": "Whether the root is present in the root history"
      },
      "zeros(uint256)": {
        "details": "provides Zero (Empty) elements for a MiMC MerkleTree. Up to 32 levels"
      }
    },
    "version": 1
  },
  "userdoc": {
    "kind": "user",
    "methods": {},
    "version": 1
  },
  "storageLayout": {
    "storage": [
      {
        "astId": 19632,
        "contract": "contracts/ZKTreeVote.sol:ZKTreeVote",
        "label": "levels",
        "offset": 0,
        "slot": "0",
        "type": "t_uint32"
      },
      {
        "astId": 19636,
        "contract": "contracts/ZKTreeVote.sol:ZKTreeVote",
        "label": "filledSubtrees",
        "offset": 0,
        "slot": "1",
        "type": "t_mapping(t_uint256,t_bytes32)"
      },
      {
        "astId": 19640,
        "contract": "contracts/ZKTreeVote.sol:ZKTreeVote",
        "label": "roots",
        "offset": 0,
        "slot": "2",
        "type": "t_mapping(t_uint256,t_bytes32)"
      },
      {
        "astId": 19646,
        "contract": "contracts/ZKTreeVote.sol:ZKTreeVote",
        "label": "currentRootIndex",
        "offset": 0,
        "slot": "3",
        "type": "t_uint32"
      },
      {
        "astId": 19649,
        "contract": "contracts/ZKTreeVote.sol:ZKTreeVote",
        "label": "nextIndex",
        "offset": 4,
        "slot": "3",
        "type": "t_uint32"
      },
      {
        "astId": 20304,
        "contract": "contracts/ZKTreeVote.sol:ZKTreeVote",
        "label": "nullifiers",
        "offset": 0,
        "slot": "4",
        "type": "t_mapping(t_bytes32,t_bool)"
      },
      {
        "astId": 20308,
        "contract": "contracts/ZKTreeVote.sol:ZKTreeVote",
        "label": "commitments",
        "offset": 0,
        "slot": "5",
        "type": "t_mapping(t_bytes32,t_bool)"
      },
      {
        "astId": 11356,
        "contract": "contracts/ZKTreeVote.sol:ZKTreeVote",
        "label": "owner",
        "offset": 0,
        "slot": "6",
        "type": "t_address"
      },
      {
        "astId": 11360,
        "contract": "contracts/ZKTreeVote.sol:ZKTreeVote",
        "label": "validators",
        "offset": 0,
        "slot": "7",
        "type": "t_mapping(t_address,t_bool)"
      },
      {
        "astId": 11364,
        "contract": "contracts/ZKTreeVote.sol:ZKTreeVote",
        "label": "uniqueHashes",
        "offset": 0,
        "slot": "8",
        "type": "t_mapping(t_uint256,t_bool)"
      },
      {
        "astId": 11366,
        "contract": "contracts/ZKTreeVote.sol:ZKTreeVote",
        "label": "numOptions",
        "offset": 0,
        "slot": "9",
        "type": "t_uint256"
      },
      {
        "astId": 11370,
        "contract": "contracts/ZKTreeVote.sol:ZKTreeVote",
        "label": "optionCounter",
        "offset": 0,
        "slot": "10",
        "type": "t_mapping(t_uint256,t_uint256)"
      }
    ],
    "types": {
      "t_address": {
        "encoding": "inplace",
        "label": "address",
        "numberOfBytes": "20"
      },
      "t_bool": {
        "encoding": "inplace",
        "label": "bool",
        "numberOfBytes": "1"
      },
      "t_bytes32": {
        "encoding": "inplace",
        "label": "bytes32",
        "numberOfBytes": "32"
      },
      "t_mapping(t_address,t_bool)": {
        "encoding": "mapping",
        "key": "t_address",
        "label": "mapping(address => bool)",
        "numberOfBytes": "32",
        "value": "t_bool"
      },
      "t_mapping(t_bytes32,t_bool)": {
        "encoding": "mapping",
        "key": "t_bytes32",
        "label": "mapping(bytes32 => bool)",
        "numberOfBytes": "32",
        "value": "t_bool"
      },
      "t_mapping(t_uint256,t_bool)": {
        "encoding": "mapping",
        "key": "t_uint256",
        "label": "mapping(uint256 => bool)",
        "numberOfBytes": "32",
        "value": "t_bool"
      },
      "t_mapping(t_uint256,t_bytes32)": {
        "encoding": "mapping",
        "key": "t_uint256",
        "label": "mapping(uint256 => bytes32)",
        "numberOfBytes": "32",
        "value": "t_bytes32"
      },
      "t_mapping(t_uint256,t_uint256)": {
        "encoding": "mapping",
        "key": "t_uint256",
        "label": "mapping(uint256 => uint256)",
        "numberOfBytes": "32",
        "value": "t_uint256"
      },
      "t_uint256": {
        "encoding": "inplace",
        "label": "uint256",
        "numberOfBytes": "32"
      },
      "t_uint32": {
        "encoding": "inplace",
        "label": "uint32",
        "numberOfBytes": "4"
      }
    }
  }
}