{
  "address": "0xF7FDAdcF5c33eB4b44A92b84cA8B83f6C18950D7",
  "abi": [
    {
      "inputs": [
        {
          "internalType": "address",
          "name": "_admin",
          "type": "address"
        }
      ],
      "stateMutability": "nonpayable",
      "type": "constructor"
    },
    {
      "anonymous": false,
      "inputs": [
        {
          "indexed": true,
          "internalType": "address",
          "name": "owner",
          "type": "address"
        },
        {
          "indexed": true,
          "internalType": "address",
          "name": "approved",
          "type": "address"
        },
        {
          "indexed": true,
          "internalType": "uint256",
          "name": "tokenId",
          "type": "uint256"
        }
      ],
      "name": "Approval",
      "type": "event"
    },
    {
      "anonymous": false,
      "inputs": [
        {
          "indexed": true,
          "internalType": "address",
          "name": "owner",
          "type": "address"
        },
        {
          "indexed": true,
          "internalType": "address",
          "name": "operator",
          "type": "address"
        },
        {
          "indexed": false,
          "internalType": "bool",
          "name": "approved",
          "type": "bool"
        }
      ],
      "name": "ApprovalForAll",
      "type": "event"
    },
    {
      "anonymous": false,
      "inputs": [
        {
          "indexed": true,
          "internalType": "address",
          "name": "account",
          "type": "address"
        }
      ],
      "name": "AssignRegistrar",
      "type": "event"
    },
    {
      "anonymous": false,
      "inputs": [
        {
          "indexed": true,
          "internalType": "address",
          "name": "delegator",
          "type": "address"
        },
        {
          "indexed": true,
          "internalType": "address",
          "name": "fromDelegate",
          "type": "address"
        },
        {
          "indexed": true,
          "internalType": "address",
          "name": "toDelegate",
          "type": "address"
        }
      ],
      "name": "DelegateChanged",
      "type": "event"
    },
    {
      "anonymous": false,
      "inputs": [
        {
          "indexed": true,
          "internalType": "address",
          "name": "delegate",
          "type": "address"
        },
        {
          "indexed": false,
          "internalType": "uint256",
          "name": "previousBalance",
          "type": "uint256"
        },
        {
          "indexed": false,
          "internalType": "uint256",
          "name": "newBalance",
          "type": "uint256"
        }
      ],
      "name": "DelegateVotesChanged",
      "type": "event"
    },
    {
      "anonymous": false,
      "inputs": [
        {
          "indexed": true,
          "internalType": "address",
          "name": "account",
          "type": "address"
        }
      ],
      "name": "RevokeRegistrar",
      "type": "event"
    },
    {
      "anonymous": false,
      "inputs": [
        {
          "indexed": true,
          "internalType": "bytes32",
          "name": "role",
          "type": "bytes32"
        },
        {
          "indexed": true,
          "internalType": "bytes32",
          "name": "previousAdminRole",
          "type": "bytes32"
        },
        {
          "indexed": true,
          "internalType": "bytes32",
          "name": "newAdminRole",
          "type": "bytes32"
        }
      ],
      "name": "RoleAdminChanged",
      "type": "event"
    },
    {
      "anonymous": false,
      "inputs": [
        {
          "indexed": true,
          "internalType": "bytes32",
          "name": "role",
          "type": "bytes32"
        },
        {
          "indexed": true,
          "internalType": "address",
          "name": "account",
          "type": "address"
        },
        {
          "indexed": true,
          "internalType": "address",
          "name": "sender",
          "type": "address"
        }
      ],
      "name": "RoleGranted",
      "type": "event"
    },
    {
      "anonymous": false,
      "inputs": [
        {
          "indexed": true,
          "internalType": "bytes32",
          "name": "role",
          "type": "bytes32"
        },
        {
          "indexed": true,
          "internalType": "address",
          "name": "account",
          "type": "address"
        },
        {
          "indexed": true,
          "internalType": "address",
          "name": "sender",
          "type": "address"
        }
      ],
      "name": "RoleRevoked",
      "type": "event"
    },
    {
      "anonymous": false,
      "inputs": [
        {
          "indexed": true,
          "internalType": "address",
          "name": "from",
          "type": "address"
        },
        {
          "indexed": true,
          "internalType": "address",
          "name": "to",
          "type": "address"
        },
        {
          "indexed": true,
          "internalType": "uint256",
          "name": "tokenId",
          "type": "uint256"
        }
      ],
      "name": "Transfer",
      "type": "event"
    },
    {
      "inputs": [],
      "name": "CLOCK_MODE",
      "outputs": [
        {
          "internalType": "string",
          "name": "",
          "type": "string"
        }
      ],
      "stateMutability": "pure",
      "type": "function"
    },
    {
      "inputs": [],
      "name": "DEFAULT_ADMIN_ROLE",
      "outputs": [
        {
          "internalType": "bytes32",
          "name": "",
          "type": "bytes32"
        }
      ],
      "stateMutability": "view",
      "type": "function"
    },
    {
      "inputs": [],
      "name": "DOMAIN_SEPARATOR",
      "outputs": [
        {
          "internalType": "bytes32",
          "name": "",
          "type": "bytes32"
        }
      ],
      "stateMutability": "view",
      "type": "function"
    },
    {
      "inputs": [],
      "name": "VOTER_REGISTRAR",
      "outputs": [
        {
          "internalType": "bytes32",
          "name": "",
          "type": "bytes32"
        }
      ],
      "stateMutability": "view",
      "type": "function"
    },
    {
      "inputs": [],
      "name": "_numOfUniqueTokens",
      "outputs": [
        {
          "internalType": "uint256",
          "name": "_value",
          "type": "uint256"
        }
      ],
      "stateMutability": "view",
      "type": "function"
    },
    {
      "inputs": [
        {
          "internalType": "uint256",
          "name": "",
          "type": "uint256"
        }
      ],
      "name": "_tokenDetails",
      "outputs": [
        {
          "internalType": "bytes32",
          "name": "hash",
          "type": "bytes32"
        }
      ],
      "stateMutability": "view",
      "type": "function"
    },
    {
      "inputs": [
        {
          "internalType": "bytes32",
          "name": "",
          "type": "bytes32"
        }
      ],
      "name": "_tokenId",
      "outputs": [
        {
          "internalType": "uint256",
          "name": "",
          "type": "uint256"
        }
      ],
      "stateMutability": "view",
      "type": "function"
    },
    {
      "inputs": [
        {
          "internalType": "address",
          "name": "to",
          "type": "address"
        },
        {
          "internalType": "uint256",
          "name": "tokenId",
          "type": "uint256"
        }
      ],
      "name": "approve",
      "outputs": [],
      "stateMutability": "nonpayable",
      "type": "function"
    },
    {
      "inputs": [
        {
          "internalType": "address",
          "name": "_registrar",
          "type": "address"
        }
      ],
      "name": "assignRegistrar",
      "outputs": [],
      "stateMutability": "nonpayable",
      "type": "function"
    },
    {
      "inputs": [
        {
          "internalType": "address",
          "name": "owner",
          "type": "address"
        }
      ],
      "name": "balanceOf",
      "outputs": [
        {
          "internalType": "uint256",
          "name": "",
          "type": "uint256"
        }
      ],
      "stateMutability": "view",
      "type": "function"
    },
    {
      "inputs": [],
      "name": "clock",
      "outputs": [
        {
          "internalType": "uint48",
          "name": "",
          "type": "uint48"
        }
      ],
      "stateMutability": "view",
      "type": "function"
    },
    {
      "inputs": [
        {
          "internalType": "address",
          "name": "delegatee",
          "type": "address"
        }
      ],
      "name": "delegate",
      "outputs": [],
      "stateMutability": "nonpayable",
      "type": "function"
    },
    {
      "inputs": [
        {
          "internalType": "address",
          "name": "delegatee",
          "type": "address"
        },
        {
          "internalType": "uint256",
          "name": "nonce",
          "type": "uint256"
        },
        {
          "internalType": "uint256",
          "name": "expiry",
          "type": "uint256"
        },
        {
          "internalType": "uint8",
          "name": "v",
          "type": "uint8"
        },
        {
          "internalType": "bytes32",
          "name": "r",
          "type": "bytes32"
        },
        {
          "internalType": "bytes32",
          "name": "s",
          "type": "bytes32"
        }
      ],
      "name": "delegateBySig",
      "outputs": [],
      "stateMutability": "nonpayable",
      "type": "function"
    },
    {
      "inputs": [
        {
          "internalType": "address",
          "name": "account",
          "type": "address"
        }
      ],
      "name": "delegates",
      "outputs": [
        {
          "internalType": "address",
          "name": "",
          "type": "address"
        }
      ],
      "stateMutability": "view",
      "type": "function"
    },
    {
      "inputs": [
        {
          "internalType": "uint256",
          "name": "tokenId",
          "type": "uint256"
        }
      ],
      "name": "getApproved",
      "outputs": [
        {
          "internalType": "address",
          "name": "",
          "type": "address"
        }
      ],
      "stateMutability": "view",
      "type": "function"
    },
    {
      "inputs": [],
      "name": "getNumOfUniqueTokens",
      "outputs": [
        {
          "internalType": "uint256",
          "name": "",
          "type": "uint256"
        }
      ],
      "stateMutability": "view",
      "type": "function"
    },
    {
      "inputs": [
        {
          "internalType": "uint256",
          "name": "blockNumber",
          "type": "uint256"
        }
      ],
      "name": "getPastTotalSupply",
      "outputs": [
        {
          "internalType": "uint256",
          "name": "",
          "type": "uint256"
        }
      ],
      "stateMutability": "view",
      "type": "function"
    },
    {
      "inputs": [
        {
          "internalType": "address",
          "name": "account",
          "type": "address"
        },
        {
          "internalType": "uint256",
          "name": "blockNumber",
          "type": "uint256"
        }
      ],
      "name": "getPastVotes",
      "outputs": [
        {
          "internalType": "uint256",
          "name": "",
          "type": "uint256"
        }
      ],
      "stateMutability": "view",
      "type": "function"
    },
    {
      "inputs": [
        {
          "internalType": "bytes32",
          "name": "role",
          "type": "bytes32"
        }
      ],
      "name": "getRoleAdmin",
      "outputs": [
        {
          "internalType": "bytes32",
          "name": "",
          "type": "bytes32"
        }
      ],
      "stateMutability": "view",
      "type": "function"
    },
    {
      "inputs": [
        {
          "internalType": "bytes32",
          "name": "_hash",
          "type": "bytes32"
        }
      ],
      "name": "getTokenId",
      "outputs": [
        {
          "internalType": "uint256",
          "name": "",
          "type": "uint256"
        }
      ],
      "stateMutability": "view",
      "type": "function"
    },
    {
      "inputs": [
        {
          "internalType": "address",
          "name": "account",
          "type": "address"
        }
      ],
      "name": "getVotes",
      "outputs": [
        {
          "internalType": "uint256",
          "name": "",
          "type": "uint256"
        }
      ],
      "stateMutability": "view",
      "type": "function"
    },
    {
      "inputs": [
        {
          "internalType": "bytes32",
          "name": "role",
          "type": "bytes32"
        },
        {
          "internalType": "address",
          "name": "account",
          "type": "address"
        }
      ],
      "name": "grantRole",
      "outputs": [],
      "stateMutability": "nonpayable",
      "type": "function"
    },
    {
      "inputs": [
        {
          "internalType": "bytes32",
          "name": "role",
          "type": "bytes32"
        },
        {
          "internalType": "address",
          "name": "account",
          "type": "address"
        }
      ],
      "name": "hasRole",
      "outputs": [
        {
          "internalType": "bool",
          "name": "",
          "type": "bool"
        }
      ],
      "stateMutability": "view",
      "type": "function"
    },
    {
      "inputs": [
        {
          "internalType": "address",
          "name": "owner",
          "type": "address"
        },
        {
          "internalType": "address",
          "name": "operator",
          "type": "address"
        }
      ],
      "name": "isApprovedForAll",
      "outputs": [
        {
          "internalType": "bool",
          "name": "",
          "type": "bool"
        }
      ],
      "stateMutability": "view",
      "type": "function"
    },
    {
      "inputs": [
        {
          "internalType": "address",
          "name": "_voter",
          "type": "address"
        },
        {
          "internalType": "bytes32",
          "name": "_hash",
          "type": "bytes32"
        }
      ],
      "name": "issueVote",
      "outputs": [],
      "stateMutability": "nonpayable",
      "type": "function"
    },
    {
      "inputs": [],
      "name": "limitedMode",
      "outputs": [
        {
          "internalType": "bool",
          "name": "",
          "type": "bool"
        }
      ],
      "stateMutability": "view",
      "type": "function"
    },
    {
      "inputs": [],
      "name": "name",
      "outputs": [
        {
          "internalType": "string",
          "name": "",
          "type": "string"
        }
      ],
      "stateMutability": "view",
      "type": "function"
    },
    {
      "inputs": [
        {
          "internalType": "address",
          "name": "owner",
          "type": "address"
        }
      ],
      "name": "nonces",
      "outputs": [
        {
          "internalType": "uint256",
          "name": "",
          "type": "uint256"
        }
      ],
      "stateMutability": "view",
      "type": "function"
    },
    {
      "inputs": [],
      "name": "openVote",
      "outputs": [
        {
          "internalType": "bool",
          "name": "",
          "type": "bool"
        }
      ],
      "stateMutability": "view",
      "type": "function"
    },
    {
      "inputs": [
        {
          "internalType": "uint256",
          "name": "tokenId",
          "type": "uint256"
        }
      ],
      "name": "ownerOf",
      "outputs": [
        {
          "internalType": "address",
          "name": "",
          "type": "address"
        }
      ],
      "stateMutability": "view",
      "type": "function"
    },
    {
      "inputs": [
        {
          "internalType": "bytes32",
          "name": "role",
          "type": "bytes32"
        },
        {
          "internalType": "address",
          "name": "account",
          "type": "address"
        }
      ],
      "name": "renounceRole",
      "outputs": [],
      "stateMutability": "nonpayable",
      "type": "function"
    },
    {
      "inputs": [
        {
          "internalType": "address",
          "name": "_registrar",
          "type": "address"
        }
      ],
      "name": "revokeRegistrar",
      "outputs": [],
      "stateMutability": "nonpayable",
      "type": "function"
    },
    {
      "inputs": [
        {
          "internalType": "bytes32",
          "name": "role",
          "type": "bytes32"
        },
        {
          "internalType": "address",
          "name": "account",
          "type": "address"
        }
      ],
      "name": "revokeRole",
      "outputs": [],
      "stateMutability": "nonpayable",
      "type": "function"
    },
    {
      "inputs": [
        {
          "internalType": "address",
          "name": "_voter",
          "type": "address"
        },
        {
          "internalType": "uint256",
          "name": "tokenId",
          "type": "uint256"
        }
      ],
      "name": "revokeVote",
      "outputs": [],
      "stateMutability": "nonpayable",
      "type": "function"
    },
    {
      "inputs": [
        {
          "internalType": "address",
          "name": "from",
          "type": "address"
        },
        {
          "internalType": "address",
          "name": "to",
          "type": "address"
        },
        {
          "internalType": "uint256",
          "name": "tokenId",
          "type": "uint256"
        }
      ],
      "name": "safeTransferFrom",
      "outputs": [],
      "stateMutability": "nonpayable",
      "type": "function"
    },
    {
      "inputs": [
        {
          "internalType": "address",
          "name": "from",
          "type": "address"
        },
        {
          "internalType": "address",
          "name": "to",
          "type": "address"
        },
        {
          "internalType": "uint256",
          "name": "tokenId",
          "type": "uint256"
        },
        {
          "internalType": "bytes",
          "name": "data",
          "type": "bytes"
        }
      ],
      "name": "safeTransferFrom",
      "outputs": [],
      "stateMutability": "nonpayable",
      "type": "function"
    },
    {
      "inputs": [
        {
          "internalType": "address",
          "name": "operator",
          "type": "address"
        },
        {
          "internalType": "bool",
          "name": "approved",
          "type": "bool"
        }
      ],
      "name": "setApprovalForAll",
      "outputs": [],
      "stateMutability": "nonpayable",
      "type": "function"
    },
    {
      "inputs": [
        {
          "internalType": "bool",
          "name": "_limitedMode",
          "type": "bool"
        }
      ],
      "name": "setLimitedMode",
      "outputs": [],
      "stateMutability": "nonpayable",
      "type": "function"
    },
    {
      "inputs": [
        {
          "internalType": "bool",
          "name": "_openVote",
          "type": "bool"
        }
      ],
      "name": "setopenVote",
      "outputs": [],
      "stateMutability": "nonpayable",
      "type": "function"
    },
    {
      "inputs": [
        {
          "internalType": "bytes4",
          "name": "interfaceId",
          "type": "bytes4"
        }
      ],
      "name": "supportsInterface",
      "outputs": [
        {
          "internalType": "bool",
          "name": "",
          "type": "bool"
        }
      ],
      "stateMutability": "view",
      "type": "function"
    },
    {
      "inputs": [],
      "name": "symbol",
      "outputs": [
        {
          "internalType": "string",
          "name": "",
          "type": "string"
        }
      ],
      "stateMutability": "view",
      "type": "function"
    },
    {
      "inputs": [
        {
          "internalType": "uint256",
          "name": "tokenId",
          "type": "uint256"
        }
      ],
      "name": "tokenURI",
      "outputs": [
        {
          "internalType": "string",
          "name": "",
          "type": "string"
        }
      ],
      "stateMutability": "view",
      "type": "function"
    },
    {
      "inputs": [
        {
          "internalType": "address",
          "name": "from",
          "type": "address"
        },
        {
          "internalType": "address",
          "name": "to",
          "type": "address"
        },
        {
          "internalType": "uint256",
          "name": "tokenId",
          "type": "uint256"
        }
      ],
      "name": "transferFrom",
      "outputs": [],
      "stateMutability": "nonpayable",
      "type": "function"
    }
  ],
  "transactionHash": "0xc2ecaff227f26517d2a9091f4f67d9829def92be98866d3d87b31a98bc551644",
  "args": [
    "0x48cd6511ECf3d109E3A0b947BA42D92a31db939f"
  ],
  "numDeployments": 1,
  "solcInputHash": "4c98383c00e9569d7d50ff225d11b62e",
  "bytecode": "0x6101406040523480156200001257600080fd5b506040516200362e3803806200362e833981016040819052620000359162000238565b60408051602080820183526000808352835180830185528181528451808601865260098152684465436170566f746560b81b81850152855180870190965260038652622221ab60e91b938601939093529293906200009483826200030f565b506001620000a382826200030f565b5050825160209384012082519284019290922060e08390526101008190524660a0818152604080517f8b73c3c69bb8fe3d512ecc4cf759cc79239f7b179b0ffacaa9a75d522b39400f818901819052818301979097526060810194909452608080850193909352308483018190528151808603909301835260c09485019091528151919096012090529290925261012052506200014260008262000184565b6200016e7fd5f959b2b7f8fdaf6464605ca497e5c53424ae9759e145e865a93b6ea4cfa4518262000184565b50600d805461ff001916610100179055620003db565b62000190828262000194565b5050565b6000828152600a602090815260408083206001600160a01b038516845290915290205460ff1662000190576000828152600a602090815260408083206001600160a01b03851684529091529020805460ff19166001179055620001f43390565b6001600160a01b0316816001600160a01b0316837f2f8788117e7eff1d82e926ec794901d17c78024a50270940304540a733656f0d60405160405180910390a45050565b6000602082840312156200024b57600080fd5b81516001600160a01b03811681146200026357600080fd5b9392505050565b634e487b7160e01b600052604160045260246000fd5b600181811c908216806200029557607f821691505b602082108103620002b657634e487b7160e01b600052602260045260246000fd5b50919050565b601f8211156200030a57600081815260208120601f850160051c81016020861015620002e55750805b601f850160051c820191505b818110156200030657828155600101620002f1565b5050505b505050565b81516001600160401b038111156200032b576200032b6200026a565b62000343816200033c845462000280565b84620002bc565b602080601f8311600181146200037b5760008415620003625750858301515b600019600386901b1c1916600185901b17855562000306565b600085815260208120601f198616915b82811015620003ac578886015182559484019460019091019084016200038b565b5085821015620003cb5787850151600019600388901b60f8161c191681555b5050505050600190811b01905550565b60805160a05160c05160e05161010051610120516132036200042b60003960006115ba01526000611609015260006115e40152600061153d015260006115670152600061159101526132036000f3fe608060405234801561001057600080fd5b50600436106102695760003560e01c806391d1485411610151578063c87b56dd116100c3578063dba851b011610087578063dba851b0146105ab578063ddc3e6eb146105b8578063df4be966146105cb578063e985e9c5146105d5578063ee16442e14610611578063f86d525e1461062457600080fd5b8063c87b56dd14610540578063c9cb65e114610553578063cf01e25314610573578063d107d8c214610586578063d547741f1461059857600080fd5b80639ab24eb0116101155780639ab24eb0146104cc578063a217fddf146104df578063a22cb465146104e7578063a6bdcfeb146104fa578063b88d4fde1461051a578063c3cda5201461052d57600080fd5b806391d148541461047357806391ddadf414610486578063950290a61461049c57806395d89b41146104b157806399ccf6ef146104b957600080fd5b80633a46b1a8116101ea5780635ddb368f116101ae5780635ddb368f146103ff5780636352211e1461040757806370a082311461041a5780637ecebe001461042d57806385f7229a146104405780638e539e8c1461046057600080fd5b80633a46b1a81461037057806342842e0e146103835780634bf5d7e914610396578063587cde1e146103c05780635c19a95c146103ec57600080fd5b806323b872dd1161023157806323b872dd146102fe578063248a9ca3146103115780632f2ff15d146103425780633644e5151461035557806336568abe1461035d57600080fd5b806301ffc9a71461026e57806306fdde0314610296578063081812fc146102ab578063095ea7b3146102d657806312550f29146102eb575b600080fd5b61028161027c366004612afe565b610637565b60405190151581526020015b60405180910390f35b61029e610662565b60405161028d9190612b6b565b6102be6102b9366004612b7e565b6106f4565b6040516001600160a01b03909116815260200161028d565b6102e96102e4366004612bb3565b61071b565b005b6102e96102f9366004612bdd565b610835565b6102e961030c366004612bf8565b6108ab565b61033461031f366004612b7e565b6000908152600a602052604090206001015490565b60405190815260200161028d565b6102e9610350366004612c34565b6108dc565b610334610901565b6102e961036b366004612c34565b610910565b61033461037e366004612bb3565b61098e565b6102e9610391366004612bf8565b6109b7565b60408051808201909152600e81526d06d6f64653d74696d657374616d760941b602082015261029e565b6102be6103ce366004612bdd565b6001600160a01b039081166000908152600660205260409020541690565b6102e96103fa366004612bdd565b6109d2565b6103346109dd565b6102be610415366004612b7e565b6109e8565b610334610428366004612bdd565b610a48565b61033461043b366004612bdd565b610ace565b61033461044e366004612b7e565b600b6020526000908152604090205481565b61033461046e366004612b7e565b610aec565b610281610481366004612c34565b610b48565b60405165ffffffffffff4216815260200161028d565b6103346000805160206131ae83398151915281565b61029e610b73565b6102e96104c7366004612bb3565b610b82565b6103346104da366004612bdd565b610d43565b610334600081565b6102e96104f5366004612c70565b610d73565b610334610508366004612b7e565b600c6020526000908152604090205481565b6102e9610528366004612cb0565b610d7e565b6102e961053b366004612d8c565b610db6565b61029e61054e366004612b7e565b610ee3565b610334610561366004612b7e565b6000908152600c602052604090205490565b6102e9610581366004612dec565b610f56565b600d5461028190610100900460ff1681565b6102e96105a6366004612c34565b610f97565b600d546102819060ff1681565b6102e96105c6366004612dec565b610fbc565b600e546103349081565b6102816105e3366004612e07565b6001600160a01b03918216600090815260056020908152604080832093909416825291909152205460ff1690565b6102e961061f366004612bb3565b610ff6565b6102e9610632366004612bdd565b6110d4565b60006001600160e01b03198216637965db0b60e01b148061065c575061065c826111b3565b92915050565b60606000805461067190612e31565b80601f016020809104026020016040519081016040528092919081815260200182805461069d90612e31565b80156106ea5780601f106106bf576101008083540402835291602001916106ea565b820191906000526020600020905b8154815290600101906020018083116106cd57829003601f168201915b5050505050905090565b60006106ff826111d8565b506000908152600460205260409020546001600160a01b031690565b6000610726826109e8565b9050806001600160a01b0316836001600160a01b0316036107985760405162461bcd60e51b815260206004820152602160248201527f4552433732313a20617070726f76616c20746f2063757272656e74206f776e656044820152603960f91b60648201526084015b60405180910390fd5b336001600160a01b03821614806107b457506107b481336105e3565b6108265760405162461bcd60e51b815260206004820152603d60248201527f4552433732313a20617070726f76652063616c6c6572206973206e6f7420746f60448201527f6b656e206f776e6572206f7220617070726f76656420666f7220616c6c000000606482015260840161078f565b610830838361123a565b505050565b610840600033610b48565b61085c5760405162461bcd60e51b815260040161078f90612e65565b6108746000805160206131ae83398151915282610f97565b6040516001600160a01b038216907f0ad3149c62c7ea215557e87a21c280a5afa5b6510b677ffc701b05c21e628e7b90600090a250565b6108b533826112a8565b6108d15760405162461bcd60e51b815260040161078f90612eaf565b610830838383611327565b6000828152600a60205260409020600101546108f7816114a0565b61083083836114aa565b600061090b611530565b905090565b6001600160a01b03811633146109805760405162461bcd60e51b815260206004820152602f60248201527f416363657373436f6e74726f6c3a2063616e206f6e6c792072656e6f756e636560448201526e103937b632b9903337b91039b2b63360891b606482015260840161078f565b61098a8282611657565b5050565b6001600160a01b03821660009081526007602052604081206109b090836116be565b9392505050565b61083083838360405180602001604052806000815250610d7e565b3361098a81836117da565b600061090b600e5490565b6000818152600260205260408120546001600160a01b03168061065c5760405162461bcd60e51b8152602060048201526018602482015277115490cdcc8c4e881a5b9d985b1a59081d1bdad95b88125160421b604482015260640161078f565b60006001600160a01b038216610ab25760405162461bcd60e51b815260206004820152602960248201527f4552433732313a2061646472657373207a65726f206973206e6f7420612076616044820152683634b21037bbb732b960b91b606482015260840161078f565b506001600160a01b031660009081526003602052604090205490565b6001600160a01b03811660009081526009602052604081205461065c565b6000438210610b3d5760405162461bcd60e51b815260206004820152601a60248201527f566f7465733a20626c6f636b206e6f7420796574206d696e6564000000000000604482015260640161078f565b61065c6008836116be565b6000918252600a602090815260408084206001600160a01b0393909316845291905290205460ff1690565b60606001805461067190612e31565b610b9a6000805160206131ae83398151915233610b48565b80610bac5750600d54610100900460ff165b610bc85760405162461bcd60e51b815260040161078f90612efc565b816001610bd482610a48565b108015610be35750600d5460ff165b80610bf55750600d54610100900460ff165b610c5c5760405162461bcd60e51b815260206004820152603260248201527f44654361703a3a7265676973746572566f7465723a205f766f74657220697320604482015271185b1c9958591e481c9959da5cdd195c995960721b606482015260840161078f565b6000828152600c6020526040902054829015610ce05760405162461bcd60e51b815260206004820152603c60248201527f44654361703a3a7265676973746572566f7465723a205f68617368206973206160448201527f6c7265616479207265676973746572656420746f206120746f6b656e00000000606482015260840161078f565b610cee600e80546001019055565b6000600b6000610cfd600e5490565b815260208101919091526040016000208481559050610d1b600e5490565b6000858152600c6020526040902055610d3c85610d37600e5490565b61184c565b5050505050565b6001600160a01b0381166000908152600760205260408120610d6490611856565b6001600160e01b031692915050565b61098a338383611890565b610d8833836112a8565b610da45760405162461bcd60e51b815260040161078f90612eaf565b610db08484848461195e565b50505050565b83421115610e065760405162461bcd60e51b815260206004820152601860248201527f566f7465733a207369676e617475726520657870697265640000000000000000604482015260640161078f565b604080517fe48329057bfd03d55e49b547132e39cffd9c1820ad7b9d4c5307691425d15adf60208201526001600160a01b038816918101919091526060810186905260808101859052600090610e8090610e789060a00160405160208183030381529060405280519060200120611991565b8585856119df565b9050610e8b81611a07565b8614610ed05760405162461bcd60e51b8152602060048201526014602482015273566f7465733a20696e76616c6964206e6f6e636560601b604482015260640161078f565b610eda81886117da565b50505050505050565b6060610eee826111d8565b6000610f0560408051602081019091526000815290565b90506000815111610f2557604051806020016040528060008152506109b0565b80610f2f84611a2f565b604051602001610f40929190612f4a565b6040516020818303038152906040529392505050565b610f61600033610b48565b610f7d5760405162461bcd60e51b815260040161078f90612e65565b600d80549115156101000261ff0019909216919091179055565b6000828152600a6020526040902060010154610fb2816114a0565b6108308383611657565b610fc7600033610b48565b610fe35760405162461bcd60e51b815260040161078f90612e65565b600d805460ff1916911515919091179055565b61100e6000805160206131ae83398151915233610b48565b806110205750600d54610100900460ff165b61103c5760405162461bcd60e51b815260040161078f90612efc565b816001600160a01b031661104f826109e8565b6001600160a01b0316146110cb5760405162461bcd60e51b815260206004820152603860248201527f44654361703a3a7265676973746572566f7465723a205f766f746572206e6f7460448201527f207265676973746572656420746f207468697320766f74650000000000000000606482015260840161078f565b61098a81611ac2565b6110df600033610b48565b6110fb5760405162461bcd60e51b815260040161078f90612e65565b6111136000805160206131ae83398151915282610b48565b1561117c5760405162461bcd60e51b815260206004820152603360248201527f44654361703a3a61737369676e5265676973747261723a205f72656769737472604482015272185c88185b1c9958591e48185cdcda59db9959606a1b606482015260840161078f565b6040516001600160a01b038216907fac5e6c6093fd6e22d8e85a953f0b64936166c527197e18f8b8856d8a19c867bf90600090a250565b60006001600160e01b03198216637965db0b60e01b148061065c575061065c82611b6f565b6000818152600260205260409020546001600160a01b03166112375760405162461bcd60e51b8152602060048201526018602482015277115490cdcc8c4e881a5b9d985b1a59081d1bdad95b88125160421b604482015260640161078f565b50565b600081815260046020526040902080546001600160a01b0319166001600160a01b038416908117909155819061126f826109e8565b6001600160a01b03167f8c5be1e5ebec7d5bd14f71427d1e84f3dd0314c0f7b2291e5b200ac8c7c3b92560405160405180910390a45050565b6000806112b4836109e8565b9050806001600160a01b0316846001600160a01b031614806112fb57506001600160a01b0380821660009081526005602090815260408083209388168352929052205460ff165b8061131f5750836001600160a01b0316611314846106f4565b6001600160a01b0316145b949350505050565b826001600160a01b031661133a826109e8565b6001600160a01b0316146113605760405162461bcd60e51b815260040161078f90612f79565b6001600160a01b0382166113c25760405162461bcd60e51b8152602060048201526024808201527f4552433732313a207472616e7366657220746f20746865207a65726f206164646044820152637265737360e01b606482015260840161078f565b6113cf8383836001611bbf565b826001600160a01b03166113e2826109e8565b6001600160a01b0316146114085760405162461bcd60e51b815260040161078f90612f79565b600081815260046020908152604080832080546001600160a01b03199081169091556001600160a01b0387811680865260038552838620805460001901905590871680865283862080546001019055868652600290945282852080549092168417909155905184937fddf252ad1be2c89b69c2b068fc378daa952ba7f163c4a11628f55a4df523b3ef91a46108308383836001611c87565b6112378133611c93565b6114b48282610b48565b61098a576000828152600a602090815260408083206001600160a01b03851684529091529020805460ff191660011790556114ec3390565b6001600160a01b0316816001600160a01b0316837f2f8788117e7eff1d82e926ec794901d17c78024a50270940304540a733656f0d60405160405180910390a45050565b6000306001600160a01b037f00000000000000000000000000000000000000000000000000000000000000001614801561158957507f000000000000000000000000000000000000000000000000000000000000000046145b156115b357507f000000000000000000000000000000000000000000000000000000000000000090565b50604080517f00000000000000000000000000000000000000000000000000000000000000006020808301919091527f0000000000000000000000000000000000000000000000000000000000000000828401527f000000000000000000000000000000000000000000000000000000000000000060608301524660808301523060a0808401919091528351808403909101815260c0909201909252805191012090565b6116618282610b48565b1561098a576000828152600a602090815260408083206001600160a01b0385168085529252808320805460ff1916905551339285917ff6391f5c32d9c69d2a47ea670b442974b53935d1edc7fd64eb21e047a839171b9190a45050565b600043821061170f5760405162461bcd60e51b815260206004820181905260248201527f436865636b706f696e74733a20626c6f636b206e6f7420796574206d696e6564604482015260640161078f565b600061171a83611cec565b8454909150600081600581111561177857600061173684611d55565b6117409085612fd4565b60008981526020902090915081015463ffffffff908116908616101561176857809150611776565b611773816001612fe7565b92505b505b600061178688868585611e3d565b905080156117c2576117ab8861179d600184612fd4565b600091825260209091200190565b5464010000000090046001600160e01b03166117c5565b60005b6001600160e01b031698975050505050505050565b6001600160a01b0382811660008181526006602052604080822080548686166001600160a01b0319821681179092559151919094169392849290917f3134e8a2e6d97e929a7e54011ea5485d7d196dd5f0ba4d4ef95803e8e3fc257f9190a4610830818361184786611e9b565b611ea6565b61098a8282611fe3565b80546000908015611887576118708361179d600184612fd4565b5464010000000090046001600160e01b03166109b0565b60009392505050565b816001600160a01b0316836001600160a01b0316036118f15760405162461bcd60e51b815260206004820152601960248201527f4552433732313a20617070726f766520746f2063616c6c657200000000000000604482015260640161078f565b6001600160a01b03838116600081815260056020908152604080832094871680845294825291829020805460ff191686151590811790915591519182527f17307eab39ab6107e8899845ad3d59bd9653f200f220920489ca2b5937696c31910160405180910390a3505050565b611969848484611327565b61197584848484612186565b610db05760405162461bcd60e51b815260040161078f90612ffa565b600061065c61199e611530565b8360405161190160f01b6020820152602281018390526042810182905260009060620160405160208183030381529060405280519060200120905092915050565b60008060006119f087878787612284565b915091506119fd81612348565b5095945050505050565b6001600160a01b03811660009081526009602052604090208054600181018255905b50919050565b60606000611a3c83612492565b600101905060008167ffffffffffffffff811115611a5c57611a5c612c9a565b6040519080825280601f01601f191660200182016040528015611a86576020820181803683370190505b5090508181016020015b600019016f181899199a1a9b1b9c1cb0b131b232b360811b600a86061a8153600a8504945084611a9057509392505050565b6000611acd826109e8565b9050611add816000846001611bbf565b611ae6826109e8565b600083815260046020908152604080832080546001600160a01b03199081169091556001600160a01b0385168085526003845282852080546000190190558785526002909352818420805490911690555192935084927fddf252ad1be2c89b69c2b068fc378daa952ba7f163c4a11628f55a4df523b3ef908390a461098a816000846001611c87565b60006001600160e01b031982166380ac58cd60e01b1480611ba057506001600160e01b03198216635b5e139f60e01b145b8061065c57506301ffc9a760e01b6001600160e01b031983161461065c565b600d5460ff161580611bd857506001600160a01b038416155b80611bea57506001600160a01b038316155b611c825760405162461bcd60e51b815260206004820152605c60248201527f44654361703a3a5f6265666f7265546f6b656e5472616e736665723a20766f7460448201527f65207472616e73666572732064697361626c656420696e206c696d697465642060648201527f6d6f646520286f6e6c7920697373756520616e64207265766f6b652900000000608482015260a40161078f565b610db0565b610db08484848461256a565b611c9d8282610b48565b61098a57611caa81612575565b611cb5836020612587565b604051602001611cc6929190613062565b60408051601f198184030181529082905262461bcd60e51b825261078f91600401612b6b565b600063ffffffff821115611d515760405162461bcd60e51b815260206004820152602660248201527f53616665436173743a2076616c756520646f65736e27742066697420696e203360448201526532206269747360d01b606482015260840161078f565b5090565b600081600003611d6757506000919050565b60006001611d7484612723565b901c6001901b90506001818481611d8d57611d8d61304c565b048201901c90506001818481611da557611da561304c565b048201901c90506001818481611dbd57611dbd61304c565b048201901c90506001818481611dd557611dd561304c565b048201901c90506001818481611ded57611ded61304c565b048201901c90506001818481611e0557611e0561304c565b048201901c90506001818481611e1d57611e1d61304c565b048201901c90506109b081828581611e3757611e3761304c565b046127b7565b60005b81831015611e93576000611e5484846127cd565b60008781526020902090915063ffffffff86169082015463ffffffff161115611e7f57809250611e8d565b611e8a816001612fe7565b93505b50611e40565b509392505050565b600061065c82610a48565b816001600160a01b0316836001600160a01b031614158015611ec85750600081115b15610830576001600160a01b03831615611f56576001600160a01b03831660009081526007602052604081208190611f03906127e8856127f4565b91509150846001600160a01b03167fdec2bacdd2f05b59de34da9b523dff8be42e5e38e818c82fdb0bae774387a7248383604051611f4b929190918252602082015260400190565b60405180910390a250505b6001600160a01b03821615610830576001600160a01b03821660009081526007602052604081208190611f8c9061282c856127f4565b91509150836001600160a01b03167fdec2bacdd2f05b59de34da9b523dff8be42e5e38e818c82fdb0bae774387a7248383604051611fd4929190918252602082015260400190565b60405180910390a25050505050565b6001600160a01b0382166120395760405162461bcd60e51b815260206004820181905260248201527f4552433732313a206d696e7420746f20746865207a65726f2061646472657373604482015260640161078f565b6000818152600260205260409020546001600160a01b03161561209e5760405162461bcd60e51b815260206004820152601c60248201527f4552433732313a20746f6b656e20616c7265616479206d696e74656400000000604482015260640161078f565b6120ac600083836001611bbf565b6000818152600260205260409020546001600160a01b0316156121115760405162461bcd60e51b815260206004820152601c60248201527f4552433732313a20746f6b656e20616c7265616479206d696e74656400000000604482015260640161078f565b6001600160a01b038216600081815260036020908152604080832080546001019055848352600290915280822080546001600160a01b0319168417905551839291907fddf252ad1be2c89b69c2b068fc378daa952ba7f163c4a11628f55a4df523b3ef908290a461098a600083836001611c87565b60006001600160a01b0384163b1561227c57604051630a85bd0160e11b81526001600160a01b0385169063150b7a02906121ca9033908990889088906004016130d7565b6020604051808303816000875af1925050508015612205575060408051601f3d908101601f1916820190925261220291810190613114565b60015b612262573d808015612233576040519150601f19603f3d011682016040523d82523d6000602084013e612238565b606091505b50805160000361225a5760405162461bcd60e51b815260040161078f90612ffa565b805181602001fd5b6001600160e01b031916630a85bd0160e11b14905061131f565b50600161131f565b6000807f7fffffffffffffffffffffffffffffff5d576e7357a4501ddfe92f46681b20a08311156122bb575060009050600361233f565b6040805160008082526020820180845289905260ff881692820192909252606081018690526080810185905260019060a0016020604051602081039080840390855afa15801561230f573d6000803e3d6000fd5b5050604051601f1901519150506001600160a01b0381166123385760006001925092505061233f565b9150600090505b94509492505050565b600081600481111561235c5761235c613131565b036123645750565b600181600481111561237857612378613131565b036123c55760405162461bcd60e51b815260206004820152601860248201527f45434453413a20696e76616c6964207369676e61747572650000000000000000604482015260640161078f565b60028160048111156123d9576123d9613131565b036124265760405162461bcd60e51b815260206004820152601f60248201527f45434453413a20696e76616c6964207369676e6174757265206c656e67746800604482015260640161078f565b600381600481111561243a5761243a613131565b036112375760405162461bcd60e51b815260206004820152602260248201527f45434453413a20696e76616c6964207369676e6174757265202773272076616c604482015261756560f01b606482015260840161078f565b60008072184f03e93ff9f4daa797ed6e38ed64bf6a1f0160401b83106124d15772184f03e93ff9f4daa797ed6e38ed64bf6a1f0160401b830492506040015b6d04ee2d6d415b85acef810000000083106124fd576d04ee2d6d415b85acef8100000000830492506020015b662386f26fc10000831061251b57662386f26fc10000830492506010015b6305f5e1008310612533576305f5e100830492506008015b612710831061254757612710830492506004015b60648310612559576064830492506002015b600a831061065c5760010192915050565b611c82848483612838565b606061065c6001600160a01b03831660145b60606000612596836002613147565b6125a1906002612fe7565b67ffffffffffffffff8111156125b9576125b9612c9a565b6040519080825280601f01601f1916602001820160405280156125e3576020820181803683370190505b509050600360fc1b816000815181106125fe576125fe61315e565b60200101906001600160f81b031916908160001a905350600f60fb1b8160018151811061262d5761262d61315e565b60200101906001600160f81b031916908160001a9053506000612651846002613147565b61265c906001612fe7565b90505b60018111156126d4576f181899199a1a9b1b9c1cb0b131b232b360811b85600f16601081106126905761269061315e565b1a60f81b8282815181106126a6576126a661315e565b60200101906001600160f81b031916908160001a90535060049490941c936126cd81613174565b905061265f565b5083156109b05760405162461bcd60e51b815260206004820181905260248201527f537472696e67733a20686578206c656e67746820696e73756666696369656e74604482015260640161078f565b600080608083901c1561273857608092831c92015b604083901c1561274a57604092831c92015b602083901c1561275c57602092831c92015b601083901c1561276e57601092831c92015b600883901c1561278057600892831c92015b600483901c1561279257600492831c92015b600283901c156127a457600292831c92015b600183901c1561065c5760010192915050565b60008183106127c657816109b0565b5090919050565b60006127dc600284841861318b565b6109b090848416612fe7565b60006109b08284612fd4565b60008061281f8561281a61280788611856565b6001600160e01b0316868863ffffffff16565b6128a8565b915091505b935093915050565b60006109b08284612fe7565b6001600160a01b03831661285757612854600861282c836127f4565b50505b6001600160a01b0382166128765761287360086127e8836127f4565b50505b6001600160a01b0383811660009081526006602052604080822054858416835291205461083092918216911683611ea6565b6000806128c6846128b843611cec565b6128c1866128dc565b612945565b6001600160e01b03918216969116945092505050565b60006001600160e01b03821115611d515760405162461bcd60e51b815260206004820152602760248201527f53616665436173743a2076616c756520646f65736e27742066697420696e20326044820152663234206269747360c81b606482015260840161078f565b825460009081908015612a8e5760006129638761179d600185612fd4565b60408051808201909152905463ffffffff8082168084526401000000009092046001600160e01b0316602084015291925090871610156129e55760405162461bcd60e51b815260206004820152601760248201527f436865636b706f696e743a20696e76616c6964206b6579000000000000000000604482015260640161078f565b805163ffffffff808816911603612a2e5784612a068861179d600186612fd4565b80546001600160e01b03929092166401000000000263ffffffff909216919091179055612a7e565b6040805180820190915263ffffffff80881682526001600160e01b0380881660208085019182528b54600181018d5560008d81529190912094519151909216640100000000029216919091179101555b6020015192508391506128249050565b50506040805180820190915263ffffffff80851682526001600160e01b0380851660208085019182528854600181018a5560008a815291822095519251909316640100000000029190931617920191909155905081612824565b6001600160e01b03198116811461123757600080fd5b600060208284031215612b1057600080fd5b81356109b081612ae8565b60005b83811015612b36578181015183820152602001612b1e565b50506000910152565b60008151808452612b57816020860160208601612b1b565b601f01601f19169290920160200192915050565b6020815260006109b06020830184612b3f565b600060208284031215612b9057600080fd5b5035919050565b80356001600160a01b0381168114612bae57600080fd5b919050565b60008060408385031215612bc657600080fd5b612bcf83612b97565b946020939093013593505050565b600060208284031215612bef57600080fd5b6109b082612b97565b600080600060608486031215612c0d57600080fd5b612c1684612b97565b9250612c2460208501612b97565b9150604084013590509250925092565b60008060408385031215612c4757600080fd5b82359150612c5760208401612b97565b90509250929050565b80358015158114612bae57600080fd5b60008060408385031215612c8357600080fd5b612c8c83612b97565b9150612c5760208401612c60565b634e487b7160e01b600052604160045260246000fd5b60008060008060808587031215612cc657600080fd5b612ccf85612b97565b9350612cdd60208601612b97565b925060408501359150606085013567ffffffffffffffff80821115612d0157600080fd5b818701915087601f830112612d1557600080fd5b813581811115612d2757612d27612c9a565b604051601f8201601f19908116603f01168101908382118183101715612d4f57612d4f612c9a565b816040528281528a6020848701011115612d6857600080fd5b82602086016020830137600060208483010152809550505050505092959194509250565b60008060008060008060c08789031215612da557600080fd5b612dae87612b97565b95506020870135945060408701359350606087013560ff81168114612dd257600080fd5b9598949750929560808101359460a0909101359350915050565b600060208284031215612dfe57600080fd5b6109b082612c60565b60008060408385031215612e1a57600080fd5b612e2383612b97565b9150612c5760208401612b97565b600181811c90821680612e4557607f821691505b602082108103611a2957634e487b7160e01b600052602260045260246000fd5b6020808252602a908201527f44654361703a3a6f6e6c7941646d696e3a206d73672e73656e646572206e6f74604082015269103a34329030b236b4b760b11b606082015260800190565b6020808252602d908201527f4552433732313a2063616c6c6572206973206e6f7420746f6b656e206f776e6560408201526c1c881bdc88185c1c1c9bdd9959609a1b606082015260800190565b6020808252602e908201527f44654361703a3a6f6e6c7941646d696e3a206d73672e73656e646572206e6f7460408201526d103a3432903932b3b4b9ba3930b960911b606082015260800190565b60008351612f5c818460208801612b1b565b835190830190612f70818360208801612b1b565b01949350505050565b60208082526025908201527f4552433732313a207472616e736665722066726f6d20696e636f72726563742060408201526437bbb732b960d91b606082015260800190565b634e487b7160e01b600052601160045260246000fd5b8181038181111561065c5761065c612fbe565b8082018082111561065c5761065c612fbe565b60208082526032908201527f4552433732313a207472616e7366657220746f206e6f6e20455243373231526560408201527131b2b4bb32b91034b6b83632b6b2b73a32b960711b606082015260800190565b634e487b7160e01b600052601260045260246000fd5b7f416363657373436f6e74726f6c3a206163636f756e742000000000000000000081526000835161309a816017850160208801612b1b565b7001034b99036b4b9b9b4b733903937b6329607d1b60179184019182015283516130cb816028840160208801612b1b565b01602801949350505050565b6001600160a01b038581168252841660208201526040810183905260806060820181905260009061310a90830184612b3f565b9695505050505050565b60006020828403121561312657600080fd5b81516109b081612ae8565b634e487b7160e01b600052602160045260246000fd5b808202811582820484141761065c5761065c612fbe565b634e487b7160e01b600052603260045260246000fd5b60008161318357613183612fbe565b506000190190565b6000826131a857634e487b7160e01b600052601260045260246000fd5b50049056fed5f959b2b7f8fdaf6464605ca497e5c53424ae9759e145e865a93b6ea4cfa451a26469706673582212206ccbe332e75bd8a18f42288c28b8bbbd2fe1d69effee5847d84bbb069359ddac64736f6c63430008110033",
  "devdoc": {
    "kind": "dev",
    "methods": {
      "DOMAIN_SEPARATOR()": {
        "details": "Returns the contract's {EIP712} domain separator."
      },
      "approve(address,uint256)": {
        "details": "See {IERC721-approve}."
      },
      "balanceOf(address)": {
        "details": "See {IERC721-balanceOf}."
      },
      "delegate(address)": {
        "details": "Delegates votes from the sender to `delegatee`."
      },
      "delegateBySig(address,uint256,uint256,uint8,bytes32,bytes32)": {
        "details": "Delegates votes from signer to `delegatee`."
      },
      "delegates(address)": {
        "details": "Returns the delegate that `account` has chosen."
      },
      "getApproved(uint256)": {
        "details": "See {IERC721-getApproved}."
      },
      "getNumOfUniqueTokens()": {
        "details": "returns number of unique tokens"
      },
      "getPastTotalSupply(uint256)": {
        "details": "Returns the total supply of votes available at the end of a past block (`blockNumber`). NOTE: This value is the sum of all available votes, which is not necessarily the sum of all delegated votes. Votes that have not been delegated are still part of total supply, even though they would not participate in a vote. Requirements: - `blockNumber` must have been already mined"
      },
      "getPastVotes(address,uint256)": {
        "details": "Returns the amount of votes that `account` had at the end of a past block (`blockNumber`). Requirements: - `blockNumber` must have been already mined"
      },
      "getRoleAdmin(bytes32)": {
        "details": "Returns the admin role that controls `role`. See {grantRole} and {revokeRole}. To change a role's admin, use {_setRoleAdmin}."
      },
      "getVotes(address)": {
        "details": "Returns the current amount of votes that `account` has."
      },
      "grantRole(bytes32,address)": {
        "details": "Grants `role` to `account`. If `account` had not been already granted `role`, emits a {RoleGranted} event. Requirements: - the caller must have ``role``'s admin role. May emit a {RoleGranted} event."
      },
      "hasRole(bytes32,address)": {
        "details": "Returns `true` if `account` has been granted `role`."
      },
      "isApprovedForAll(address,address)": {
        "details": "See {IERC721-isApprovedForAll}."
      },
      "name()": {
        "details": "See {IERC721Metadata-name}."
      },
      "nonces(address)": {
        "details": "Returns an address nonce."
      },
      "ownerOf(uint256)": {
        "details": "See {IERC721-ownerOf}."
      },
      "renounceRole(bytes32,address)": {
        "details": "Revokes `role` from the calling account. Roles are often managed via {grantRole} and {revokeRole}: this function's purpose is to provide a mechanism for accounts to lose their privileges if they are compromised (such as when a trusted device is misplaced). If the calling account had been revoked `role`, emits a {RoleRevoked} event. Requirements: - the caller must be `account`. May emit a {RoleRevoked} event."
      },
      "revokeRole(bytes32,address)": {
        "details": "Revokes `role` from `account`. If `account` had been granted `role`, emits a {RoleRevoked} event. Requirements: - the caller must have ``role``'s admin role. May emit a {RoleRevoked} event."
      },
      "safeTransferFrom(address,address,uint256)": {
        "details": "See {IERC721-safeTransferFrom}."
      },
      "safeTransferFrom(address,address,uint256,bytes)": {
        "details": "See {IERC721-safeTransferFrom}."
      },
      "setApprovalForAll(address,bool)": {
        "details": "See {IERC721-setApprovalForAll}."
      },
      "setLimitedMode(bool)": {
        "details": "turns off or on limited mode",
        "params": {
          "_limitedMode": "boolean value"
        }
      },
      "symbol()": {
        "details": "See {IERC721Metadata-symbol}."
      },
      "tokenURI(uint256)": {
        "details": "See {IERC721Metadata-tokenURI}."
      },
      "transferFrom(address,address,uint256)": {
        "details": "See {IERC721-transferFrom}."
      }
    },
    "version": 1
  },
  "userdoc": {
    "kind": "user",
    "methods": {},
    "version": 1
  },
  "storageLayout": {
    "storage": [
      {
        "astId": 946,
        "contract": "contracts/DeCapVote.sol:DeCapVote",
        "label": "_name",
        "offset": 0,
        "slot": "0",
        "type": "t_string_storage"
      },
      {
        "astId": 948,
        "contract": "contracts/DeCapVote.sol:DeCapVote",
        "label": "_symbol",
        "offset": 0,
        "slot": "1",
        "type": "t_string_storage"
      },
      {
        "astId": 952,
        "contract": "contracts/DeCapVote.sol:DeCapVote",
        "label": "_owners",
        "offset": 0,
        "slot": "2",
        "type": "t_mapping(t_uint256,t_address)"
      },
      {
        "astId": 956,
        "contract": "contracts/DeCapVote.sol:DeCapVote",
        "label": "_balances",
        "offset": 0,
        "slot": "3",
        "type": "t_mapping(t_address,t_uint256)"
      },
      {
        "astId": 960,
        "contract": "contracts/DeCapVote.sol:DeCapVote",
        "label": "_tokenApprovals",
        "offset": 0,
        "slot": "4",
        "type": "t_mapping(t_uint256,t_address)"
      },
      {
        "astId": 966,
        "contract": "contracts/DeCapVote.sol:DeCapVote",
        "label": "_operatorApprovals",
        "offset": 0,
        "slot": "5",
        "type": "t_mapping(t_address,t_mapping(t_address,t_bool))"
      },
      {
        "astId": 497,
        "contract": "contracts/DeCapVote.sol:DeCapVote",
        "label": "_delegation",
        "offset": 0,
        "slot": "6",
        "type": "t_mapping(t_address,t_address)"
      },
      {
        "astId": 502,
        "contract": "contracts/DeCapVote.sol:DeCapVote",
        "label": "_delegateCheckpoints",
        "offset": 0,
        "slot": "7",
        "type": "t_mapping(t_address,t_struct(History)2401_storage)"
      },
      {
        "astId": 505,
        "contract": "contracts/DeCapVote.sol:DeCapVote",
        "label": "_totalCheckpoints",
        "offset": 0,
        "slot": "8",
        "type": "t_struct(History)2401_storage"
      },
      {
        "astId": 510,
        "contract": "contracts/DeCapVote.sol:DeCapVote",
        "label": "_nonces",
        "offset": 0,
        "slot": "9",
        "type": "t_mapping(t_address,t_struct(Counter)3790_storage)"
      },
      {
        "astId": 24,
        "contract": "contracts/DeCapVote.sol:DeCapVote",
        "label": "_roles",
        "offset": 0,
        "slot": "10",
        "type": "t_mapping(t_bytes32,t_struct(RoleData)19_storage)"
      },
      {
        "astId": 7019,
        "contract": "contracts/DeCapVote.sol:DeCapVote",
        "label": "_tokenDetails",
        "offset": 0,
        "slot": "11",
        "type": "t_mapping(t_uint256,t_struct(TokenDetails)7014_storage)"
      },
      {
        "astId": 7023,
        "contract": "contracts/DeCapVote.sol:DeCapVote",
        "label": "_tokenId",
        "offset": 0,
        "slot": "12",
        "type": "t_mapping(t_bytes32,t_uint256)"
      },
      {
        "astId": 7025,
        "contract": "contracts/DeCapVote.sol:DeCapVote",
        "label": "limitedMode",
        "offset": 0,
        "slot": "13",
        "type": "t_bool"
      },
      {
        "astId": 7027,
        "contract": "contracts/DeCapVote.sol:DeCapVote",
        "label": "openVote",
        "offset": 1,
        "slot": "13",
        "type": "t_bool"
      },
      {
        "astId": 7030,
        "contract": "contracts/DeCapVote.sol:DeCapVote",
        "label": "_numOfUniqueTokens",
        "offset": 0,
        "slot": "14",
        "type": "t_struct(Counter)3790_storage"
      }
    ],
    "types": {
      "t_address": {
        "encoding": "inplace",
        "label": "address",
        "numberOfBytes": "20"
      },
      "t_array(t_struct(Checkpoint)2406_storage)dyn_storage": {
        "base": "t_struct(Checkpoint)2406_storage",
        "encoding": "dynamic_array",
        "label": "struct Checkpoints.Checkpoint[]",
        "numberOfBytes": "32"
      },
      "t_bool": {
        "encoding": "inplace",
        "label": "bool",
        "numberOfBytes": "1"
      },
      "t_bytes32": {
        "encoding": "inplace",
        "label": "bytes32",
        "numberOfBytes": "32"
      },
      "t_mapping(t_address,t_address)": {
        "encoding": "mapping",
        "key": "t_address",
        "label": "mapping(address => address)",
        "numberOfBytes": "32",
        "value": "t_address"
      },
      "t_mapping(t_address,t_bool)": {
        "encoding": "mapping",
        "key": "t_address",
        "label": "mapping(address => bool)",
        "numberOfBytes": "32",
        "value": "t_bool"
      },
      "t_mapping(t_address,t_mapping(t_address,t_bool))": {
        "encoding": "mapping",
        "key": "t_address",
        "label": "mapping(address => mapping(address => bool))",
        "numberOfBytes": "32",
        "value": "t_mapping(t_address,t_bool)"
      },
      "t_mapping(t_address,t_struct(Counter)3790_storage)": {
        "encoding": "mapping",
        "key": "t_address",
        "label": "mapping(address => struct Counters.Counter)",
        "numberOfBytes": "32",
        "value": "t_struct(Counter)3790_storage"
      },
      "t_mapping(t_address,t_struct(History)2401_storage)": {
        "encoding": "mapping",
        "key": "t_address",
        "label": "mapping(address => struct Checkpoints.History)",
        "numberOfBytes": "32",
        "value": "t_struct(History)2401_storage"
      },
      "t_mapping(t_address,t_uint256)": {
        "encoding": "mapping",
        "key": "t_address",
        "label": "mapping(address => uint256)",
        "numberOfBytes": "32",
        "value": "t_uint256"
      },
      "t_mapping(t_bytes32,t_struct(RoleData)19_storage)": {
        "encoding": "mapping",
        "key": "t_bytes32",
        "label": "mapping(bytes32 => struct AccessControl.RoleData)",
        "numberOfBytes": "32",
        "value": "t_struct(RoleData)19_storage"
      },
      "t_mapping(t_bytes32,t_uint256)": {
        "encoding": "mapping",
        "key": "t_bytes32",
        "label": "mapping(bytes32 => uint256)",
        "numberOfBytes": "32",
        "value": "t_uint256"
      },
      "t_mapping(t_uint256,t_address)": {
        "encoding": "mapping",
        "key": "t_uint256",
        "label": "mapping(uint256 => address)",
        "numberOfBytes": "32",
        "value": "t_address"
      },
      "t_mapping(t_uint256,t_struct(TokenDetails)7014_storage)": {
        "encoding": "mapping",
        "key": "t_uint256",
        "label": "mapping(uint256 => struct DeCapVote.TokenDetails)",
        "numberOfBytes": "32",
        "value": "t_struct(TokenDetails)7014_storage"
      },
      "t_string_storage": {
        "encoding": "bytes",
        "label": "string",
        "numberOfBytes": "32"
      },
      "t_struct(Checkpoint)2406_storage": {
        "encoding": "inplace",
        "label": "struct Checkpoints.Checkpoint",
        "members": [
          {
            "astId": 2403,
            "contract": "contracts/DeCapVote.sol:DeCapVote",
            "label": "_blockNumber",
            "offset": 0,
            "slot": "0",
            "type": "t_uint32"
          },
          {
            "astId": 2405,
            "contract": "contracts/DeCapVote.sol:DeCapVote",
            "label": "_value",
            "offset": 4,
            "slot": "0",
            "type": "t_uint224"
          }
        ],
        "numberOfBytes": "32"
      },
      "t_struct(Counter)3790_storage": {
        "encoding": "inplace",
        "label": "struct Counters.Counter",
        "members": [
          {
            "astId": 3789,
            "contract": "contracts/DeCapVote.sol:DeCapVote",
            "label": "_value",
            "offset": 0,
            "slot": "0",
            "type": "t_uint256"
          }
        ],
        "numberOfBytes": "32"
      },
      "t_struct(History)2401_storage": {
        "encoding": "inplace",
        "label": "struct Checkpoints.History",
        "members": [
          {
            "astId": 2400,
            "contract": "contracts/DeCapVote.sol:DeCapVote",
            "label": "_checkpoints",
            "offset": 0,
            "slot": "0",
            "type": "t_array(t_struct(Checkpoint)2406_storage)dyn_storage"
          }
        ],
        "numberOfBytes": "32"
      },
      "t_struct(RoleData)19_storage": {
        "encoding": "inplace",
        "label": "struct AccessControl.RoleData",
        "members": [
          {
            "astId": 16,
            "contract": "contracts/DeCapVote.sol:DeCapVote",
            "label": "members",
            "offset": 0,
            "slot": "0",
            "type": "t_mapping(t_address,t_bool)"
          },
          {
            "astId": 18,
            "contract": "contracts/DeCapVote.sol:DeCapVote",
            "label": "adminRole",
            "offset": 0,
            "slot": "1",
            "type": "t_bytes32"
          }
        ],
        "numberOfBytes": "64"
      },
      "t_struct(TokenDetails)7014_storage": {
        "encoding": "inplace",
        "label": "struct DeCapVote.TokenDetails",
        "members": [
          {
            "astId": 7013,
            "contract": "contracts/DeCapVote.sol:DeCapVote",
            "label": "hash",
            "offset": 0,
            "slot": "0",
            "type": "t_bytes32"
          }
        ],
        "numberOfBytes": "32"
      },
      "t_uint224": {
        "encoding": "inplace",
        "label": "uint224",
        "numberOfBytes": "28"
      },
      "t_uint256": {
        "encoding": "inplace",
        "label": "uint256",
        "numberOfBytes": "32"
      },
      "t_uint32": {
        "encoding": "inplace",
        "label": "uint32",
        "numberOfBytes": "4"
      }
    }
  }
}