{
  "address": "0x40718F659854CB2B3c838bd7CB73E46a47deB581",
  "abi": [
    {
      "inputs": [
        {
          "internalType": "address",
          "name": "_admin",
          "type": "address"
        }
      ],
      "stateMutability": "nonpayable",
      "type": "constructor"
    },
    {
      "inputs": [],
      "name": "InvalidShortString",
      "type": "error"
    },
    {
      "inputs": [
        {
          "internalType": "string",
          "name": "str",
          "type": "string"
        }
      ],
      "name": "StringTooLong",
      "type": "error"
    },
    {
      "anonymous": false,
      "inputs": [
        {
          "indexed": true,
          "internalType": "address",
          "name": "owner",
          "type": "address"
        },
        {
          "indexed": true,
          "internalType": "address",
          "name": "approved",
          "type": "address"
        },
        {
          "indexed": true,
          "internalType": "uint256",
          "name": "tokenId",
          "type": "uint256"
        }
      ],
      "name": "Approval",
      "type": "event"
    },
    {
      "anonymous": false,
      "inputs": [
        {
          "indexed": true,
          "internalType": "address",
          "name": "owner",
          "type": "address"
        },
        {
          "indexed": true,
          "internalType": "address",
          "name": "operator",
          "type": "address"
        },
        {
          "indexed": false,
          "internalType": "bool",
          "name": "approved",
          "type": "bool"
        }
      ],
      "name": "ApprovalForAll",
      "type": "event"
    },
    {
      "anonymous": false,
      "inputs": [
        {
          "indexed": true,
          "internalType": "address",
          "name": "account",
          "type": "address"
        }
      ],
      "name": "AssignRegistrar",
      "type": "event"
    },
    {
      "anonymous": false,
      "inputs": [
        {
          "indexed": true,
          "internalType": "address",
          "name": "delegator",
          "type": "address"
        },
        {
          "indexed": true,
          "internalType": "address",
          "name": "fromDelegate",
          "type": "address"
        },
        {
          "indexed": true,
          "internalType": "address",
          "name": "toDelegate",
          "type": "address"
        }
      ],
      "name": "DelegateChanged",
      "type": "event"
    },
    {
      "anonymous": false,
      "inputs": [
        {
          "indexed": true,
          "internalType": "address",
          "name": "delegate",
          "type": "address"
        },
        {
          "indexed": false,
          "internalType": "uint256",
          "name": "previousBalance",
          "type": "uint256"
        },
        {
          "indexed": false,
          "internalType": "uint256",
          "name": "newBalance",
          "type": "uint256"
        }
      ],
      "name": "DelegateVotesChanged",
      "type": "event"
    },
    {
      "anonymous": false,
      "inputs": [],
      "name": "EIP712DomainChanged",
      "type": "event"
    },
    {
      "anonymous": false,
      "inputs": [
        {
          "indexed": true,
          "internalType": "address",
          "name": "account",
          "type": "address"
        }
      ],
      "name": "RevokeRegistrar",
      "type": "event"
    },
    {
      "anonymous": false,
      "inputs": [
        {
          "indexed": true,
          "internalType": "bytes32",
          "name": "role",
          "type": "bytes32"
        },
        {
          "indexed": true,
          "internalType": "bytes32",
          "name": "previousAdminRole",
          "type": "bytes32"
        },
        {
          "indexed": true,
          "internalType": "bytes32",
          "name": "newAdminRole",
          "type": "bytes32"
        }
      ],
      "name": "RoleAdminChanged",
      "type": "event"
    },
    {
      "anonymous": false,
      "inputs": [
        {
          "indexed": true,
          "internalType": "bytes32",
          "name": "role",
          "type": "bytes32"
        },
        {
          "indexed": true,
          "internalType": "address",
          "name": "account",
          "type": "address"
        },
        {
          "indexed": true,
          "internalType": "address",
          "name": "sender",
          "type": "address"
        }
      ],
      "name": "RoleGranted",
      "type": "event"
    },
    {
      "anonymous": false,
      "inputs": [
        {
          "indexed": true,
          "internalType": "bytes32",
          "name": "role",
          "type": "bytes32"
        },
        {
          "indexed": true,
          "internalType": "address",
          "name": "account",
          "type": "address"
        },
        {
          "indexed": true,
          "internalType": "address",
          "name": "sender",
          "type": "address"
        }
      ],
      "name": "RoleRevoked",
      "type": "event"
    },
    {
      "anonymous": false,
      "inputs": [
        {
          "indexed": true,
          "internalType": "address",
          "name": "from",
          "type": "address"
        },
        {
          "indexed": true,
          "internalType": "address",
          "name": "to",
          "type": "address"
        },
        {
          "indexed": true,
          "internalType": "uint256",
          "name": "tokenId",
          "type": "uint256"
        }
      ],
      "name": "Transfer",
      "type": "event"
    },
    {
      "inputs": [],
      "name": "CLOCK_MODE",
      "outputs": [
        {
          "internalType": "string",
          "name": "",
          "type": "string"
        }
      ],
      "stateMutability": "pure",
      "type": "function"
    },
    {
      "inputs": [],
      "name": "DEFAULT_ADMIN_ROLE",
      "outputs": [
        {
          "internalType": "bytes32",
          "name": "",
          "type": "bytes32"
        }
      ],
      "stateMutability": "view",
      "type": "function"
    },
    {
      "inputs": [],
      "name": "DOMAIN_SEPARATOR",
      "outputs": [
        {
          "internalType": "bytes32",
          "name": "",
          "type": "bytes32"
        }
      ],
      "stateMutability": "view",
      "type": "function"
    },
    {
      "inputs": [],
      "name": "VOTER_REGISTRAR",
      "outputs": [
        {
          "internalType": "bytes32",
          "name": "",
          "type": "bytes32"
        }
      ],
      "stateMutability": "view",
      "type": "function"
    },
    {
      "inputs": [],
      "name": "_numOfUniqueTokens",
      "outputs": [
        {
          "internalType": "uint256",
          "name": "_value",
          "type": "uint256"
        }
      ],
      "stateMutability": "view",
      "type": "function"
    },
    {
      "inputs": [
        {
          "internalType": "uint256",
          "name": "",
          "type": "uint256"
        }
      ],
      "name": "_tokenDetails",
      "outputs": [
        {
          "internalType": "bytes32",
          "name": "hash",
          "type": "bytes32"
        }
      ],
      "stateMutability": "view",
      "type": "function"
    },
    {
      "inputs": [
        {
          "internalType": "bytes32",
          "name": "",
          "type": "bytes32"
        }
      ],
      "name": "_tokenId",
      "outputs": [
        {
          "internalType": "uint256",
          "name": "",
          "type": "uint256"
        }
      ],
      "stateMutability": "view",
      "type": "function"
    },
    {
      "inputs": [
        {
          "internalType": "address",
          "name": "to",
          "type": "address"
        },
        {
          "internalType": "uint256",
          "name": "tokenId",
          "type": "uint256"
        }
      ],
      "name": "approve",
      "outputs": [],
      "stateMutability": "nonpayable",
      "type": "function"
    },
    {
      "inputs": [
        {
          "internalType": "address",
          "name": "_registrar",
          "type": "address"
        }
      ],
      "name": "assignRegistrar",
      "outputs": [],
      "stateMutability": "nonpayable",
      "type": "function"
    },
    {
      "inputs": [
        {
          "internalType": "address",
          "name": "owner",
          "type": "address"
        }
      ],
      "name": "balanceOf",
      "outputs": [
        {
          "internalType": "uint256",
          "name": "",
          "type": "uint256"
        }
      ],
      "stateMutability": "view",
      "type": "function"
    },
    {
      "inputs": [],
      "name": "clock",
      "outputs": [
        {
          "internalType": "uint48",
          "name": "",
          "type": "uint48"
        }
      ],
      "stateMutability": "view",
      "type": "function"
    },
    {
      "inputs": [
        {
          "internalType": "address",
          "name": "delegatee",
          "type": "address"
        }
      ],
      "name": "delegate",
      "outputs": [],
      "stateMutability": "nonpayable",
      "type": "function"
    },
    {
      "inputs": [
        {
          "internalType": "address",
          "name": "delegatee",
          "type": "address"
        },
        {
          "internalType": "uint256",
          "name": "nonce",
          "type": "uint256"
        },
        {
          "internalType": "uint256",
          "name": "expiry",
          "type": "uint256"
        },
        {
          "internalType": "uint8",
          "name": "v",
          "type": "uint8"
        },
        {
          "internalType": "bytes32",
          "name": "r",
          "type": "bytes32"
        },
        {
          "internalType": "bytes32",
          "name": "s",
          "type": "bytes32"
        }
      ],
      "name": "delegateBySig",
      "outputs": [],
      "stateMutability": "nonpayable",
      "type": "function"
    },
    {
      "inputs": [
        {
          "internalType": "address",
          "name": "account",
          "type": "address"
        }
      ],
      "name": "delegates",
      "outputs": [
        {
          "internalType": "address",
          "name": "",
          "type": "address"
        }
      ],
      "stateMutability": "view",
      "type": "function"
    },
    {
      "inputs": [],
      "name": "eip712Domain",
      "outputs": [
        {
          "internalType": "bytes1",
          "name": "fields",
          "type": "bytes1"
        },
        {
          "internalType": "string",
          "name": "name",
          "type": "string"
        },
        {
          "internalType": "string",
          "name": "version",
          "type": "string"
        },
        {
          "internalType": "uint256",
          "name": "chainId",
          "type": "uint256"
        },
        {
          "internalType": "address",
          "name": "verifyingContract",
          "type": "address"
        },
        {
          "internalType": "bytes32",
          "name": "salt",
          "type": "bytes32"
        },
        {
          "internalType": "uint256[]",
          "name": "extensions",
          "type": "uint256[]"
        }
      ],
      "stateMutability": "view",
      "type": "function"
    },
    {
      "inputs": [
        {
          "internalType": "uint256",
          "name": "tokenId",
          "type": "uint256"
        }
      ],
      "name": "getApproved",
      "outputs": [
        {
          "internalType": "address",
          "name": "",
          "type": "address"
        }
      ],
      "stateMutability": "view",
      "type": "function"
    },
    {
      "inputs": [],
      "name": "getNumOfUniqueTokens",
      "outputs": [
        {
          "internalType": "uint256",
          "name": "",
          "type": "uint256"
        }
      ],
      "stateMutability": "view",
      "type": "function"
    },
    {
      "inputs": [
        {
          "internalType": "uint256",
          "name": "timepoint",
          "type": "uint256"
        }
      ],
      "name": "getPastTotalSupply",
      "outputs": [
        {
          "internalType": "uint256",
          "name": "",
          "type": "uint256"
        }
      ],
      "stateMutability": "view",
      "type": "function"
    },
    {
      "inputs": [
        {
          "internalType": "address",
          "name": "account",
          "type": "address"
        },
        {
          "internalType": "uint256",
          "name": "timepoint",
          "type": "uint256"
        }
      ],
      "name": "getPastVotes",
      "outputs": [
        {
          "internalType": "uint256",
          "name": "",
          "type": "uint256"
        }
      ],
      "stateMutability": "view",
      "type": "function"
    },
    {
      "inputs": [
        {
          "internalType": "bytes32",
          "name": "role",
          "type": "bytes32"
        }
      ],
      "name": "getRoleAdmin",
      "outputs": [
        {
          "internalType": "bytes32",
          "name": "",
          "type": "bytes32"
        }
      ],
      "stateMutability": "view",
      "type": "function"
    },
    {
      "inputs": [
        {
          "internalType": "bytes32",
          "name": "_hash",
          "type": "bytes32"
        }
      ],
      "name": "getTokenId",
      "outputs": [
        {
          "internalType": "uint256",
          "name": "",
          "type": "uint256"
        }
      ],
      "stateMutability": "view",
      "type": "function"
    },
    {
      "inputs": [
        {
          "internalType": "address",
          "name": "account",
          "type": "address"
        }
      ],
      "name": "getVotes",
      "outputs": [
        {
          "internalType": "uint256",
          "name": "",
          "type": "uint256"
        }
      ],
      "stateMutability": "view",
      "type": "function"
    },
    {
      "inputs": [
        {
          "internalType": "bytes32",
          "name": "role",
          "type": "bytes32"
        },
        {
          "internalType": "address",
          "name": "account",
          "type": "address"
        }
      ],
      "name": "grantRole",
      "outputs": [],
      "stateMutability": "nonpayable",
      "type": "function"
    },
    {
      "inputs": [
        {
          "internalType": "bytes32",
          "name": "role",
          "type": "bytes32"
        },
        {
          "internalType": "address",
          "name": "account",
          "type": "address"
        }
      ],
      "name": "hasRole",
      "outputs": [
        {
          "internalType": "bool",
          "name": "",
          "type": "bool"
        }
      ],
      "stateMutability": "view",
      "type": "function"
    },
    {
      "inputs": [
        {
          "internalType": "address",
          "name": "owner",
          "type": "address"
        },
        {
          "internalType": "address",
          "name": "operator",
          "type": "address"
        }
      ],
      "name": "isApprovedForAll",
      "outputs": [
        {
          "internalType": "bool",
          "name": "",
          "type": "bool"
        }
      ],
      "stateMutability": "view",
      "type": "function"
    },
    {
      "inputs": [
        {
          "internalType": "address",
          "name": "_voter",
          "type": "address"
        },
        {
          "internalType": "bytes32",
          "name": "_hash",
          "type": "bytes32"
        }
      ],
      "name": "issueVote",
      "outputs": [],
      "stateMutability": "nonpayable",
      "type": "function"
    },
    {
      "inputs": [],
      "name": "limitedMode",
      "outputs": [
        {
          "internalType": "bool",
          "name": "",
          "type": "bool"
        }
      ],
      "stateMutability": "view",
      "type": "function"
    },
    {
      "inputs": [],
      "name": "name",
      "outputs": [
        {
          "internalType": "string",
          "name": "",
          "type": "string"
        }
      ],
      "stateMutability": "view",
      "type": "function"
    },
    {
      "inputs": [
        {
          "internalType": "address",
          "name": "owner",
          "type": "address"
        }
      ],
      "name": "nonces",
      "outputs": [
        {
          "internalType": "uint256",
          "name": "",
          "type": "uint256"
        }
      ],
      "stateMutability": "view",
      "type": "function"
    },
    {
      "inputs": [],
      "name": "openVote",
      "outputs": [
        {
          "internalType": "bool",
          "name": "",
          "type": "bool"
        }
      ],
      "stateMutability": "view",
      "type": "function"
    },
    {
      "inputs": [
        {
          "internalType": "uint256",
          "name": "tokenId",
          "type": "uint256"
        }
      ],
      "name": "ownerOf",
      "outputs": [
        {
          "internalType": "address",
          "name": "",
          "type": "address"
        }
      ],
      "stateMutability": "view",
      "type": "function"
    },
    {
      "inputs": [
        {
          "internalType": "bytes32",
          "name": "role",
          "type": "bytes32"
        },
        {
          "internalType": "address",
          "name": "account",
          "type": "address"
        }
      ],
      "name": "renounceRole",
      "outputs": [],
      "stateMutability": "nonpayable",
      "type": "function"
    },
    {
      "inputs": [
        {
          "internalType": "address",
          "name": "_registrar",
          "type": "address"
        }
      ],
      "name": "revokeRegistrar",
      "outputs": [],
      "stateMutability": "nonpayable",
      "type": "function"
    },
    {
      "inputs": [
        {
          "internalType": "bytes32",
          "name": "role",
          "type": "bytes32"
        },
        {
          "internalType": "address",
          "name": "account",
          "type": "address"
        }
      ],
      "name": "revokeRole",
      "outputs": [],
      "stateMutability": "nonpayable",
      "type": "function"
    },
    {
      "inputs": [
        {
          "internalType": "address",
          "name": "_voter",
          "type": "address"
        },
        {
          "internalType": "uint256",
          "name": "tokenId",
          "type": "uint256"
        }
      ],
      "name": "revokeVote",
      "outputs": [],
      "stateMutability": "nonpayable",
      "type": "function"
    },
    {
      "inputs": [
        {
          "internalType": "address",
          "name": "from",
          "type": "address"
        },
        {
          "internalType": "address",
          "name": "to",
          "type": "address"
        },
        {
          "internalType": "uint256",
          "name": "tokenId",
          "type": "uint256"
        }
      ],
      "name": "safeTransferFrom",
      "outputs": [],
      "stateMutability": "nonpayable",
      "type": "function"
    },
    {
      "inputs": [
        {
          "internalType": "address",
          "name": "from",
          "type": "address"
        },
        {
          "internalType": "address",
          "name": "to",
          "type": "address"
        },
        {
          "internalType": "uint256",
          "name": "tokenId",
          "type": "uint256"
        },
        {
          "internalType": "bytes",
          "name": "data",
          "type": "bytes"
        }
      ],
      "name": "safeTransferFrom",
      "outputs": [],
      "stateMutability": "nonpayable",
      "type": "function"
    },
    {
      "inputs": [
        {
          "internalType": "address",
          "name": "operator",
          "type": "address"
        },
        {
          "internalType": "bool",
          "name": "approved",
          "type": "bool"
        }
      ],
      "name": "setApprovalForAll",
      "outputs": [],
      "stateMutability": "nonpayable",
      "type": "function"
    },
    {
      "inputs": [
        {
          "internalType": "bool",
          "name": "_limitedMode",
          "type": "bool"
        }
      ],
      "name": "setLimitedMode",
      "outputs": [],
      "stateMutability": "nonpayable",
      "type": "function"
    },
    {
      "inputs": [
        {
          "internalType": "bool",
          "name": "_openVote",
          "type": "bool"
        }
      ],
      "name": "setopenVote",
      "outputs": [],
      "stateMutability": "nonpayable",
      "type": "function"
    },
    {
      "inputs": [
        {
          "internalType": "bytes4",
          "name": "interfaceId",
          "type": "bytes4"
        }
      ],
      "name": "supportsInterface",
      "outputs": [
        {
          "internalType": "bool",
          "name": "",
          "type": "bool"
        }
      ],
      "stateMutability": "view",
      "type": "function"
    },
    {
      "inputs": [],
      "name": "symbol",
      "outputs": [
        {
          "internalType": "string",
          "name": "",
          "type": "string"
        }
      ],
      "stateMutability": "view",
      "type": "function"
    },
    {
      "inputs": [
        {
          "internalType": "uint256",
          "name": "tokenId",
          "type": "uint256"
        }
      ],
      "name": "tokenURI",
      "outputs": [
        {
          "internalType": "string",
          "name": "",
          "type": "string"
        }
      ],
      "stateMutability": "view",
      "type": "function"
    },
    {
      "inputs": [
        {
          "internalType": "address",
          "name": "from",
          "type": "address"
        },
        {
          "internalType": "address",
          "name": "to",
          "type": "address"
        },
        {
          "internalType": "uint256",
          "name": "tokenId",
          "type": "uint256"
        }
      ],
      "name": "transferFrom",
      "outputs": [],
      "stateMutability": "nonpayable",
      "type": "function"
    }
  ],
  "transactionHash": "0x98390c36595fa50c3fbc1de991fb26d26118b8a226157a5dbe3246fb54f9c718",
  "args": [
    "0x48cd6511ECf3d109E3A0b947BA42D92a31db939f"
  ],
  "numDeployments": 2,
  "solcInputHash": "72c22fa176e69cd510f3430b430ee90c",
  "bytecode": "0x6101606040523480156200001257600080fd5b5060405162003bc238038062003bc2833981016040819052620000359162000317565b60408051602080820183526000808352835180830185528181528451808601865260098152684465436170566f746560b81b81850152855180870190965260038652622221ab60e91b93860193909352929390620000948382620003ee565b506001620000a38282620003ee565b505050620000c1600683620001c460201b620012cc1790919060201c565b61012052620000de816007620001c4602090811b620012cc17901c565b61014052815160208084019190912060e052815190820120610100524660a0526200016c60e05161010051604080517f8b73c3c69bb8fe3d512ecc4cf759cc79239f7b179b0ffacaa9a75d522b39400f60208201529081019290925260608201524660808201523060a082015260009060c00160405160208183030381529060405280519060200120905090565b60805250503060c0526200018260008262000214565b620001ae7fd5f959b2b7f8fdaf6464605ca497e5c53424ae9759e145e865a93b6ea4cfa4518262000214565b50600f805461ff0019166101001790556200052f565b6000602083511015620001e457620001dc8362000224565b90506200020e565b82620001fb836200027060201b620012fd1760201c565b90620002089082620003ee565b5060ff90505b92915050565b62000220828262000273565b5050565b600080829050601f815111156200025b578260405163305a27a960e01b8152600401620002529190620004ba565b60405180910390fd5b805162000268826200050a565b179392505050565b90565b6000828152600c602090815260408083206001600160a01b038516845290915290205460ff1662000220576000828152600c602090815260408083206001600160a01b03851684529091529020805460ff19166001179055620002d33390565b6001600160a01b0316816001600160a01b0316837f2f8788117e7eff1d82e926ec794901d17c78024a50270940304540a733656f0d60405160405180910390a45050565b6000602082840312156200032a57600080fd5b81516001600160a01b03811681146200034257600080fd5b9392505050565b634e487b7160e01b600052604160045260246000fd5b600181811c908216806200037457607f821691505b6020821081036200039557634e487b7160e01b600052602260045260246000fd5b50919050565b601f821115620003e957600081815260208120601f850160051c81016020861015620003c45750805b601f850160051c820191505b81811015620003e557828155600101620003d0565b5050505b505050565b81516001600160401b038111156200040a576200040a62000349565b62000422816200041b84546200035f565b846200039b565b602080601f8311600181146200045a5760008415620004415750858301515b600019600386901b1c1916600185901b178555620003e5565b600085815260208120601f198616915b828110156200048b578886015182559484019460019091019084016200046a565b5085821015620004aa5787850151600019600388901b60f8161c191681555b5050505050600190811b01905550565b600060208083528351808285015260005b81811015620004e957858101830151858201604001528201620004cb565b506000604082860101526040601f19601f8301168501019250505092915050565b80516020808301519190811015620003955760001960209190910360031b1b16919050565b60805160a05160c05160e0516101005161012051610140516136386200058a6000396000610bac01526000610b81015260006117570152600061172f0152600061168a015260006116b4015260006116de01526136386000f3fe608060405234801561001057600080fd5b50600436106102745760003560e01c806391d1485411610151578063c87b56dd116100c3578063dba851b011610087578063dba851b0146105d1578063ddc3e6eb146105de578063df4be966146105f1578063e985e9c5146105fb578063ee16442e14610637578063f86d525e1461064a57600080fd5b8063c87b56dd14610566578063c9cb65e114610579578063cf01e25314610599578063d107d8c2146105ac578063d547741f146105be57600080fd5b80639ab24eb0116101155780639ab24eb0146104f2578063a217fddf14610505578063a22cb4651461050d578063a6bdcfeb14610520578063b88d4fde14610540578063c3cda5201461055357600080fd5b806391d148541461049957806391ddadf4146104ac578063950290a6146104c257806395d89b41146104d757806399ccf6ef146104df57600080fd5b806342842e0e116101ea5780636352211e116101ae5780636352211e1461041257806370a08231146104255780637ecebe001461043857806384b0196e1461044b57806385f7229a146104665780638e539e8c1461048657600080fd5b806342842e0e1461038e5780634bf5d7e9146103a1578063587cde1e146103cb5780635c19a95c146103f75780635ddb368f1461040a57600080fd5b806323b872dd1161023c57806323b872dd14610309578063248a9ca31461031c5780632f2ff15d1461034d5780633644e5151461036057806336568abe146103685780633a46b1a81461037b57600080fd5b806301ffc9a71461027957806306fdde03146102a1578063081812fc146102b6578063095ea7b3146102e157806312550f29146102f6575b600080fd5b61028c610287366004612d24565b61065d565b60405190151581526020015b60405180910390f35b6102a9610688565b6040516102989190612d91565b6102c96102c4366004612da4565b61071a565b6040516001600160a01b039091168152602001610298565b6102f46102ef366004612dd9565b610741565b005b6102f4610304366004612e03565b61085b565b6102f4610317366004612e1e565b6108d1565b61033f61032a366004612da4565b6000908152600c602052604090206001015490565b604051908152602001610298565b6102f461035b366004612e5a565b610902565b61033f610927565b6102f4610376366004612e5a565b610936565b61033f610389366004612dd9565b6109b4565b6102f461039c366004612e1e565b610a3e565b60408051808201909152600e81526d06d6f64653d74696d657374616d760941b60208201526102a9565b6102c96103d9366004612e03565b6001600160a01b039081166000908152600860205260409020541690565b6102f4610405366004612e03565b610a59565b61033f610a64565b6102c9610420366004612da4565b610a6f565b61033f610433366004612e03565b610acf565b61033f610446366004612e03565b610b55565b610453610b73565b6040516102989796959493929190612e86565b61033f610474366004612da4565b600d6020526000908152604090205481565b61033f610494366004612da4565b610bfc565b61028c6104a7366004612e5a565b610c6f565b60405165ffffffffffff42168152602001610298565b61033f6000805160206135e383398151915281565b6102a9610c9a565b6102f46104ed366004612dd9565b610ca9565b61033f610500366004612e03565b610e6a565b61033f600081565b6102f461051b366004612f2c565b610e8b565b61033f61052e366004612da4565b600e6020526000908152604090205481565b6102f461054e366004612f6c565b610e96565b6102f4610561366004613048565b610ece565b6102a9610574366004612da4565b610ffb565b61033f610587366004612da4565b6000908152600e602052604090205490565b6102f46105a73660046130a8565b61106f565b600f5461028c90610100900460ff1681565b6102f46105cc366004612e5a565b6110b0565b600f5461028c9060ff1681565b6102f46105ec3660046130a8565b6110d5565b60105461033f9081565b61028c6106093660046130c3565b6001600160a01b03918216600090815260056020908152604080832093909416825291909152205460ff1690565b6102f4610645366004612dd9565b61110f565b6102f4610658366004612e03565b6111ed565b60006001600160e01b03198216637965db0b60e01b1480610682575061068282611300565b92915050565b606060008054610697906130ed565b80601f01602080910402602001604051908101604052809291908181526020018280546106c3906130ed565b80156107105780601f106106e557610100808354040283529160200191610710565b820191906000526020600020905b8154815290600101906020018083116106f357829003601f168201915b5050505050905090565b600061072582611325565b506000908152600460205260409020546001600160a01b031690565b600061074c82610a6f565b9050806001600160a01b0316836001600160a01b0316036107be5760405162461bcd60e51b815260206004820152602160248201527f4552433732313a20617070726f76616c20746f2063757272656e74206f776e656044820152603960f91b60648201526084015b60405180910390fd5b336001600160a01b03821614806107da57506107da8133610609565b61084c5760405162461bcd60e51b815260206004820152603d60248201527f4552433732313a20617070726f76652063616c6c6572206973206e6f7420746f60448201527f6b656e206f776e6572206f7220617070726f76656420666f7220616c6c00000060648201526084016107b5565b6108568383611387565b505050565b610866600033610c6f565b6108825760405162461bcd60e51b81526004016107b590613121565b61089a6000805160206135e3833981519152826110b0565b6040516001600160a01b038216907f0ad3149c62c7ea215557e87a21c280a5afa5b6510b677ffc701b05c21e628e7b90600090a250565b6108db33826113f5565b6108f75760405162461bcd60e51b81526004016107b59061316b565b610856838383611474565b6000828152600c602052604090206001015461091d816115ed565b61085683836115f7565b600061093161167d565b905090565b6001600160a01b03811633146109a65760405162461bcd60e51b815260206004820152602f60248201527f416363657373436f6e74726f6c3a2063616e206f6e6c792072656e6f756e636560448201526e103937b632b9903337b91039b2b63360891b60648201526084016107b5565b6109b082826117a8565b5050565b60004265ffffffffffff168210610a045760405162461bcd60e51b81526020600482015260146024820152730566f7465733a20667574757265206c6f6f6b75760641b60448201526064016107b5565b610a2e610a108361180f565b6001600160a01b038516600090815260096020526040902090611878565b6001600160e01b03169392505050565b61085683838360405180602001604052806000815250610e96565b336109b0818361192d565b600061093160105490565b6000818152600260205260408120546001600160a01b0316806106825760405162461bcd60e51b8152602060048201526018602482015277115490cdcc8c4e881a5b9d985b1a59081d1bdad95b88125160421b60448201526064016107b5565b60006001600160a01b038216610b395760405162461bcd60e51b815260206004820152602960248201527f4552433732313a2061646472657373207a65726f206973206e6f7420612076616044820152683634b21037bbb732b960b91b60648201526084016107b5565b506001600160a01b031660009081526003602052604090205490565b6001600160a01b0381166000908152600b6020526040812054610682565b600060608082808083610ba77f0000000000000000000000000000000000000000000000000000000000000000600661199f565b610bd27f0000000000000000000000000000000000000000000000000000000000000000600761199f565b60408051600080825260208201909252600f60f81b9b939a50919850469750309650945092509050565b60004265ffffffffffff168210610c4c5760405162461bcd60e51b81526020600482015260146024820152730566f7465733a20667574757265206c6f6f6b75760641b60448201526064016107b5565b610c60610c588361180f565b600a90611878565b6001600160e01b031692915050565b6000918252600c602090815260408084206001600160a01b0393909316845291905290205460ff1690565b606060018054610697906130ed565b610cc16000805160206135e383398151915233610c6f565b80610cd35750600f54610100900460ff165b610cef5760405162461bcd60e51b81526004016107b5906131b8565b816001610cfb82610acf565b108015610d0a5750600f5460ff165b80610d1c5750600f54610100900460ff165b610d835760405162461bcd60e51b815260206004820152603260248201527f44654361703a3a7265676973746572566f7465723a205f766f74657220697320604482015271185b1c9958591e481c9959da5cdd195c995960721b60648201526084016107b5565b6000828152600e6020526040902054829015610e075760405162461bcd60e51b815260206004820152603c60248201527f44654361703a3a7265676973746572566f7465723a205f68617368206973206160448201527f6c7265616479207265676973746572656420746f206120746f6b656e0000000060648201526084016107b5565b610e15601080546001019055565b6000600d6000610e2460105490565b815260208101919091526040016000208481559050610e4260105490565b6000858152600e6020526040902055610e6385610e5e60105490565b611a43565b5050505050565b6001600160a01b0381166000908152600960205260408120610c6090611a4d565b6109b0338383611a87565b610ea033836113f5565b610ebc5760405162461bcd60e51b81526004016107b59061316b565b610ec884848484611b55565b50505050565b83421115610f1e5760405162461bcd60e51b815260206004820152601860248201527f566f7465733a207369676e61747572652065787069726564000000000000000060448201526064016107b5565b604080517fe48329057bfd03d55e49b547132e39cffd9c1820ad7b9d4c5307691425d15adf60208201526001600160a01b038816918101919091526060810186905260808101859052600090610f9890610f909060a00160405160208183030381529060405280519060200120611b88565b858585611bb5565b9050610fa381611bdd565b8614610fe85760405162461bcd60e51b8152602060048201526014602482015273566f7465733a20696e76616c6964206e6f6e636560601b60448201526064016107b5565b610ff2818861192d565b50505050505050565b606061100682611325565b600061101d60408051602081019091526000815290565b9050600081511161103d5760405180602001604052806000815250611068565b8061104784611c05565b604051602001611058929190613206565b6040516020818303038152906040525b9392505050565b61107a600033610c6f565b6110965760405162461bcd60e51b81526004016107b590613121565b600f80549115156101000261ff0019909216919091179055565b6000828152600c60205260409020600101546110cb816115ed565b61085683836117a8565b6110e0600033610c6f565b6110fc5760405162461bcd60e51b81526004016107b590613121565b600f805460ff1916911515919091179055565b6111276000805160206135e383398151915233610c6f565b806111395750600f54610100900460ff165b6111555760405162461bcd60e51b81526004016107b5906131b8565b816001600160a01b031661116882610a6f565b6001600160a01b0316146111e45760405162461bcd60e51b815260206004820152603860248201527f44654361703a3a7265676973746572566f7465723a205f766f746572206e6f7460448201527f207265676973746572656420746f207468697320766f7465000000000000000060648201526084016107b5565b6109b081611c98565b6111f8600033610c6f565b6112145760405162461bcd60e51b81526004016107b590613121565b61122c6000805160206135e383398151915282610c6f565b156112955760405162461bcd60e51b815260206004820152603360248201527f44654361703a3a61737369676e5265676973747261723a205f72656769737472604482015272185c88185b1c9958591e48185cdcda59db9959606a1b60648201526084016107b5565b6040516001600160a01b038216907fac5e6c6093fd6e22d8e85a953f0b64936166c527197e18f8b8856d8a19c867bf90600090a250565b60006020835110156112e8576112e183611d45565b9050610682565b816112f38482613283565b5060ff9050610682565b90565b60006001600160e01b03198216637965db0b60e01b1480610682575061068282611d83565b6000818152600260205260409020546001600160a01b03166113845760405162461bcd60e51b8152602060048201526018602482015277115490cdcc8c4e881a5b9d985b1a59081d1bdad95b88125160421b60448201526064016107b5565b50565b600081815260046020526040902080546001600160a01b0319166001600160a01b03841690811790915581906113bc82610a6f565b6001600160a01b03167f8c5be1e5ebec7d5bd14f71427d1e84f3dd0314c0f7b2291e5b200ac8c7c3b92560405160405180910390a45050565b60008061140183610a6f565b9050806001600160a01b0316846001600160a01b0316148061144857506001600160a01b0380821660009081526005602090815260408083209388168352929052205460ff165b8061146c5750836001600160a01b03166114618461071a565b6001600160a01b0316145b949350505050565b826001600160a01b031661148782610a6f565b6001600160a01b0316146114ad5760405162461bcd60e51b81526004016107b590613343565b6001600160a01b03821661150f5760405162461bcd60e51b8152602060048201526024808201527f4552433732313a207472616e7366657220746f20746865207a65726f206164646044820152637265737360e01b60648201526084016107b5565b61151c8383836001611dd3565b826001600160a01b031661152f82610a6f565b6001600160a01b0316146115555760405162461bcd60e51b81526004016107b590613343565b600081815260046020908152604080832080546001600160a01b03199081169091556001600160a01b0387811680865260038552838620805460001901905590871680865283862080546001019055868652600290945282852080549092168417909155905184937fddf252ad1be2c89b69c2b068fc378daa952ba7f163c4a11628f55a4df523b3ef91a46108568383836001611e9b565b6113848133611ea7565b6116018282610c6f565b6109b0576000828152600c602090815260408083206001600160a01b03851684529091529020805460ff191660011790556116393390565b6001600160a01b0316816001600160a01b0316837f2f8788117e7eff1d82e926ec794901d17c78024a50270940304540a733656f0d60405160405180910390a45050565b6000306001600160a01b037f0000000000000000000000000000000000000000000000000000000000000000161480156116d657507f000000000000000000000000000000000000000000000000000000000000000046145b1561170057507f000000000000000000000000000000000000000000000000000000000000000090565b610931604080517f8b73c3c69bb8fe3d512ecc4cf759cc79239f7b179b0ffacaa9a75d522b39400f60208201527f0000000000000000000000000000000000000000000000000000000000000000918101919091527f000000000000000000000000000000000000000000000000000000000000000060608201524660808201523060a082015260009060c00160405160208183030381529060405280519060200120905090565b6117b28282610c6f565b156109b0576000828152600c602090815260408083206001600160a01b0385168085529252808320805460ff1916905551339285917ff6391f5c32d9c69d2a47ea670b442974b53935d1edc7fd64eb21e047a839171b9190a45050565b600063ffffffff8211156118745760405162461bcd60e51b815260206004820152602660248201527f53616665436173743a2076616c756520646f65736e27742066697420696e203360448201526532206269747360d01b60648201526084016107b5565b5090565b8154600090818160058111156118d557600061189384611f00565b61189d908561339e565b60008881526020902090915081015463ffffffff90811690871610156118c5578091506118d3565b6118d08160016133b1565b92505b505b60006118e387878585611fe8565b9050801561191f57611908876118fa60018461339e565b600091825260209091200190565b5464010000000090046001600160e01b0316611922565b60005b979650505050505050565b6001600160a01b0382811660008181526008602052604080822080548686166001600160a01b0319821681179092559151919094169392849290917f3134e8a2e6d97e929a7e54011ea5485d7d196dd5f0ba4d4ef95803e8e3fc257f9190a4610856818361199a86612046565b612051565b606060ff83146119b2576112e1836121bd565b8180546119be906130ed565b80601f01602080910402602001604051908101604052809291908181526020018280546119ea906130ed565b8015611a375780601f10611a0c57610100808354040283529160200191611a37565b820191906000526020600020905b815481529060010190602001808311611a1a57829003601f168201915b50505050509050610682565b6109b082826121fc565b80546000908015611a7e57611a67836118fa60018461339e565b5464010000000090046001600160e01b0316611068565b60009392505050565b816001600160a01b0316836001600160a01b031603611ae85760405162461bcd60e51b815260206004820152601960248201527f4552433732313a20617070726f766520746f2063616c6c65720000000000000060448201526064016107b5565b6001600160a01b03838116600081815260056020908152604080832094871680845294825291829020805460ff191686151590811790915591519182527f17307eab39ab6107e8899845ad3d59bd9653f200f220920489ca2b5937696c31910160405180910390a3505050565b611b60848484611474565b611b6c8484848461239f565b610ec85760405162461bcd60e51b81526004016107b5906133c4565b6000610682611b9561167d565b8360405161190160f01b8152600281019290925260228201526042902090565b6000806000611bc68787878761249d565b91509150611bd381612561565b5095945050505050565b6001600160a01b0381166000908152600b602052604090208054600181018255905b50919050565b60606000611c12836126ab565b600101905060008167ffffffffffffffff811115611c3257611c32612f56565b6040519080825280601f01601f191660200182016040528015611c5c576020820181803683370190505b5090508181016020015b600019016f181899199a1a9b1b9c1cb0b131b232b360811b600a86061a8153600a8504945084611c6657509392505050565b6000611ca382610a6f565b9050611cb3816000846001611dd3565b611cbc82610a6f565b600083815260046020908152604080832080546001600160a01b03199081169091556001600160a01b0385168085526003845282852080546000190190558785526002909352818420805490911690555192935084927fddf252ad1be2c89b69c2b068fc378daa952ba7f163c4a11628f55a4df523b3ef908390a46109b0816000846001611e9b565b600080829050601f81511115611d70578260405163305a27a960e01b81526004016107b59190612d91565b8051611d7b8261342c565b179392505050565b60006001600160e01b031982166380ac58cd60e01b1480611db457506001600160e01b03198216635b5e139f60e01b145b8061068257506301ffc9a760e01b6001600160e01b0319831614610682565b600f5460ff161580611dec57506001600160a01b038416155b80611dfe57506001600160a01b038316155b611e965760405162461bcd60e51b815260206004820152605c60248201527f44654361703a3a5f6265666f7265546f6b656e5472616e736665723a20766f7460448201527f65207472616e73666572732064697361626c656420696e206c696d697465642060648201527f6d6f646520286f6e6c7920697373756520616e64207265766f6b652900000000608482015260a4016107b5565b610ec8565b610ec884848484612783565b611eb18282610c6f565b6109b057611ebe8161278e565b611ec98360206127a0565b604051602001611eda929190613450565b60408051601f198184030181529082905262461bcd60e51b82526107b591600401612d91565b600081600003611f1257506000919050565b60006001611f1f8461293c565b901c6001901b90506001818481611f3857611f38613416565b048201901c90506001818481611f5057611f50613416565b048201901c90506001818481611f6857611f68613416565b048201901c90506001818481611f8057611f80613416565b048201901c90506001818481611f9857611f98613416565b048201901c90506001818481611fb057611fb0613416565b048201901c90506001818481611fc857611fc8613416565b048201901c905061106881828581611fe257611fe2613416565b046129d0565b60005b8183101561203e576000611fff84846129e6565b60008781526020902090915063ffffffff86169082015463ffffffff16111561202a57809250612038565b6120358160016133b1565b93505b50611feb565b509392505050565b600061068282610acf565b816001600160a01b0316836001600160a01b0316141580156120735750600081115b15610856576001600160a01b0383161561211b576001600160a01b038316600090815260096020526040812081906120b690612a016120b186612a0d565b612a76565b6001600160e01b031691506001600160e01b03169150846001600160a01b03167fdec2bacdd2f05b59de34da9b523dff8be42e5e38e818c82fdb0bae774387a7248383604051612110929190918252602082015260400190565b60405180910390a250505b6001600160a01b03821615610856576001600160a01b0382166000908152600960205260408120819061215490612ab86120b186612a0d565b6001600160e01b031691506001600160e01b03169150836001600160a01b03167fdec2bacdd2f05b59de34da9b523dff8be42e5e38e818c82fdb0bae774387a72483836040516121ae929190918252602082015260400190565b60405180910390a25050505050565b606060006121ca83612ac4565b604080516020808252818301909252919250600091906020820181803683375050509182525060208101929092525090565b6001600160a01b0382166122525760405162461bcd60e51b815260206004820181905260248201527f4552433732313a206d696e7420746f20746865207a65726f206164647265737360448201526064016107b5565b6000818152600260205260409020546001600160a01b0316156122b75760405162461bcd60e51b815260206004820152601c60248201527f4552433732313a20746f6b656e20616c7265616479206d696e7465640000000060448201526064016107b5565b6122c5600083836001611dd3565b6000818152600260205260409020546001600160a01b03161561232a5760405162461bcd60e51b815260206004820152601c60248201527f4552433732313a20746f6b656e20616c7265616479206d696e7465640000000060448201526064016107b5565b6001600160a01b038216600081815260036020908152604080832080546001019055848352600290915280822080546001600160a01b0319168417905551839291907fddf252ad1be2c89b69c2b068fc378daa952ba7f163c4a11628f55a4df523b3ef908290a46109b0600083836001611e9b565b60006001600160a01b0384163b1561249557604051630a85bd0160e11b81526001600160a01b0385169063150b7a02906123e39033908990889088906004016134c5565b6020604051808303816000875af192505050801561241e575060408051601f3d908101601f1916820190925261241b91810190613502565b60015b61247b573d80801561244c576040519150601f19603f3d011682016040523d82523d6000602084013e612451565b606091505b5080516000036124735760405162461bcd60e51b81526004016107b5906133c4565b805181602001fd5b6001600160e01b031916630a85bd0160e11b14905061146c565b50600161146c565b6000807f7fffffffffffffffffffffffffffffff5d576e7357a4501ddfe92f46681b20a08311156124d45750600090506003612558565b6040805160008082526020820180845289905260ff881692820192909252606081018690526080810185905260019060a0016020604051602081039080840390855afa158015612528573d6000803e3d6000fd5b5050604051601f1901519150506001600160a01b03811661255157600060019250925050612558565b9150600090505b94509492505050565b60008160048111156125755761257561351f565b0361257d5750565b60018160048111156125915761259161351f565b036125de5760405162461bcd60e51b815260206004820152601860248201527f45434453413a20696e76616c6964207369676e6174757265000000000000000060448201526064016107b5565b60028160048111156125f2576125f261351f565b0361263f5760405162461bcd60e51b815260206004820152601f60248201527f45434453413a20696e76616c6964207369676e6174757265206c656e6774680060448201526064016107b5565b60038160048111156126535761265361351f565b036113845760405162461bcd60e51b815260206004820152602260248201527f45434453413a20696e76616c6964207369676e6174757265202773272076616c604482015261756560f01b60648201526084016107b5565b60008072184f03e93ff9f4daa797ed6e38ed64bf6a1f0160401b83106126ea5772184f03e93ff9f4daa797ed6e38ed64bf6a1f0160401b830492506040015b6d04ee2d6d415b85acef81000000008310612716576d04ee2d6d415b85acef8100000000830492506020015b662386f26fc10000831061273457662386f26fc10000830492506010015b6305f5e100831061274c576305f5e100830492506008015b612710831061276057612710830492506004015b60648310612772576064830492506002015b600a83106106825760010192915050565b611e96848483612aec565b60606106826001600160a01b03831660145b606060006127af836002613535565b6127ba9060026133b1565b67ffffffffffffffff8111156127d2576127d2612f56565b6040519080825280601f01601f1916602001820160405280156127fc576020820181803683370190505b509050600360fc1b816000815181106128175761281761354c565b60200101906001600160f81b031916908160001a905350600f60fb1b816001815181106128465761284661354c565b60200101906001600160f81b031916908160001a905350600061286a846002613535565b6128759060016133b1565b90505b60018111156128ed576f181899199a1a9b1b9c1cb0b131b232b360811b85600f16601081106128a9576128a961354c565b1a60f81b8282815181106128bf576128bf61354c565b60200101906001600160f81b031916908160001a90535060049490941c936128e681613562565b9050612878565b5083156110685760405162461bcd60e51b815260206004820181905260248201527f537472696e67733a20686578206c656e67746820696e73756666696369656e7460448201526064016107b5565b600080608083901c1561295157608092831c92015b604083901c1561296357604092831c92015b602083901c1561297557602092831c92015b601083901c1561298757601092831c92015b600883901c1561299957600892831c92015b600483901c156129ab57600492831c92015b600283901c156129bd57600292831c92015b600183901c156106825760010192915050565b60008183106129df5781611068565b5090919050565b60006129f56002848418613579565b611068908484166133b1565b6000611068828461359b565b60006001600160e01b038211156118745760405162461bcd60e51b815260206004820152602760248201527f53616665436173743a2076616c756520646f65736e27742066697420696e20326044820152663234206269747360c81b60648201526084016107b5565b600080612aab612a8d4265ffffffffffff1661180f565b612aa3612a9988611a4d565b868863ffffffff16565b879190612b62565b915091505b935093915050565b600061106882846135c2565b600060ff8216601f81111561068257604051632cd44ac360e21b815260040160405180910390fd5b6001600160a01b038316612b0e57612b0b600a612ab86120b184612a0d565b50505b6001600160a01b038216612b3057612b2d600a612a016120b184612a0d565b50505b6001600160a01b0383811660009081526008602052604080822054858416835291205461085692918216911683612051565b600080612aab858585825460009081908015612cb4576000612b89876118fa60018561339e565b60408051808201909152905463ffffffff8082168084526401000000009092046001600160e01b031660208401529192509087161015612c0b5760405162461bcd60e51b815260206004820152601b60248201527f436865636b706f696e743a2064656372656173696e67206b657973000000000060448201526064016107b5565b805163ffffffff808816911603612c545784612c2c886118fa60018661339e565b80546001600160e01b03929092166401000000000263ffffffff909216919091179055612ca4565b6040805180820190915263ffffffff80881682526001600160e01b0380881660208085019182528b54600181018d5560008d81529190912094519151909216640100000000029216919091179101555b602001519250839150612ab09050565b50506040805180820190915263ffffffff80851682526001600160e01b0380851660208085019182528854600181018a5560008a815291822095519251909316640100000000029190931617920191909155905081612ab0565b6001600160e01b03198116811461138457600080fd5b600060208284031215612d3657600080fd5b813561106881612d0e565b60005b83811015612d5c578181015183820152602001612d44565b50506000910152565b60008151808452612d7d816020860160208601612d41565b601f01601f19169290920160200192915050565b6020815260006110686020830184612d65565b600060208284031215612db657600080fd5b5035919050565b80356001600160a01b0381168114612dd457600080fd5b919050565b60008060408385031215612dec57600080fd5b612df583612dbd565b946020939093013593505050565b600060208284031215612e1557600080fd5b61106882612dbd565b600080600060608486031215612e3357600080fd5b612e3c84612dbd565b9250612e4a60208501612dbd565b9150604084013590509250925092565b60008060408385031215612e6d57600080fd5b82359150612e7d60208401612dbd565b90509250929050565b60ff60f81b881681526000602060e081840152612ea660e084018a612d65565b8381036040850152612eb8818a612d65565b606085018990526001600160a01b038816608086015260a0850187905284810360c0860152855180825283870192509083019060005b81811015612f0a57835183529284019291840191600101612eee565b50909c9b505050505050505050505050565b80358015158114612dd457600080fd5b60008060408385031215612f3f57600080fd5b612f4883612dbd565b9150612e7d60208401612f1c565b634e487b7160e01b600052604160045260246000fd5b60008060008060808587031215612f8257600080fd5b612f8b85612dbd565b9350612f9960208601612dbd565b925060408501359150606085013567ffffffffffffffff80821115612fbd57600080fd5b818701915087601f830112612fd157600080fd5b813581811115612fe357612fe3612f56565b604051601f8201601f19908116603f0116810190838211818310171561300b5761300b612f56565b816040528281528a602084870101111561302457600080fd5b82602086016020830137600060208483010152809550505050505092959194509250565b60008060008060008060c0878903121561306157600080fd5b61306a87612dbd565b95506020870135945060408701359350606087013560ff8116811461308e57600080fd5b9598949750929560808101359460a0909101359350915050565b6000602082840312156130ba57600080fd5b61106882612f1c565b600080604083850312156130d657600080fd5b6130df83612dbd565b9150612e7d60208401612dbd565b600181811c9082168061310157607f821691505b602082108103611bff57634e487b7160e01b600052602260045260246000fd5b6020808252602a908201527f44654361703a3a6f6e6c7941646d696e3a206d73672e73656e646572206e6f74604082015269103a34329030b236b4b760b11b606082015260800190565b6020808252602d908201527f4552433732313a2063616c6c6572206973206e6f7420746f6b656e206f776e6560408201526c1c881bdc88185c1c1c9bdd9959609a1b606082015260800190565b6020808252602e908201527f44654361703a3a6f6e6c7941646d696e3a206d73672e73656e646572206e6f7460408201526d103a3432903932b3b4b9ba3930b960911b606082015260800190565b60008351613218818460208801612d41565b83519083019061322c818360208801612d41565b01949350505050565b601f82111561085657600081815260208120601f850160051c8101602086101561325c5750805b601f850160051c820191505b8181101561327b57828155600101613268565b505050505050565b815167ffffffffffffffff81111561329d5761329d612f56565b6132b1816132ab84546130ed565b84613235565b602080601f8311600181146132e657600084156132ce5750858301515b600019600386901b1c1916600185901b17855561327b565b600085815260208120601f198616915b82811015613315578886015182559484019460019091019084016132f6565b50858210156133335787850151600019600388901b60f8161c191681555b5050505050600190811b01905550565b60208082526025908201527f4552433732313a207472616e736665722066726f6d20696e636f72726563742060408201526437bbb732b960d91b606082015260800190565b634e487b7160e01b600052601160045260246000fd5b8181038181111561068257610682613388565b8082018082111561068257610682613388565b60208082526032908201527f4552433732313a207472616e7366657220746f206e6f6e20455243373231526560408201527131b2b4bb32b91034b6b83632b6b2b73a32b960711b606082015260800190565b634e487b7160e01b600052601260045260246000fd5b80516020808301519190811015611bff5760001960209190910360031b1b16919050565b7f416363657373436f6e74726f6c3a206163636f756e7420000000000000000000815260008351613488816017850160208801612d41565b7001034b99036b4b9b9b4b733903937b6329607d1b60179184019182015283516134b9816028840160208801612d41565b01602801949350505050565b6001600160a01b03858116825284166020820152604081018390526080606082018190526000906134f890830184612d65565b9695505050505050565b60006020828403121561351457600080fd5b815161106881612d0e565b634e487b7160e01b600052602160045260246000fd5b808202811582820484141761068257610682613388565b634e487b7160e01b600052603260045260246000fd5b60008161357157613571613388565b506000190190565b60008261359657634e487b7160e01b600052601260045260246000fd5b500490565b6001600160e01b038281168282160390808211156135bb576135bb613388565b5092915050565b6001600160e01b038181168382160190808211156135bb576135bb61338856fed5f959b2b7f8fdaf6464605ca497e5c53424ae9759e145e865a93b6ea4cfa451a264697066735822122009ceead50f50d998027f86da4aaee31b1af3f7e935829067fa92967ce4f13f9564736f6c63430008110033",
  "devdoc": {
    "kind": "dev",
    "methods": {
      "CLOCK_MODE()": {
        "details": "Machine-readable description of the clock as specified in EIP-6372."
      },
      "DOMAIN_SEPARATOR()": {
        "details": "Returns the contract's {EIP712} domain separator."
      },
      "approve(address,uint256)": {
        "details": "See {IERC721-approve}."
      },
      "balanceOf(address)": {
        "details": "See {IERC721-balanceOf}."
      },
      "clock()": {
        "details": "Clock used for flagging checkpoints. Can be overridden to implement timestamp based checkpoints (and voting), in which case {CLOCK_MODE} should be overridden as well to match."
      },
      "delegate(address)": {
        "details": "Delegates votes from the sender to `delegatee`."
      },
      "delegateBySig(address,uint256,uint256,uint8,bytes32,bytes32)": {
        "details": "Delegates votes from signer to `delegatee`."
      },
      "delegates(address)": {
        "details": "Returns the delegate that `account` has chosen."
      },
      "eip712Domain()": {
        "details": "See {EIP-5267}. _Available since v4.9._"
      },
      "getApproved(uint256)": {
        "details": "See {IERC721-getApproved}."
      },
      "getNumOfUniqueTokens()": {
        "details": "returns number of unique tokens"
      },
      "getPastTotalSupply(uint256)": {
        "details": "Returns the total supply of votes available at a specific moment in the past. If the `clock()` is configured to use block numbers, this will return the value at the end of the corresponding block. NOTE: This value is the sum of all available votes, which is not necessarily the sum of all delegated votes. Votes that have not been delegated are still part of total supply, even though they would not participate in a vote. Requirements: - `timepoint` must be in the past. If operating using block numbers, the block must be already mined."
      },
      "getPastVotes(address,uint256)": {
        "details": "Returns the amount of votes that `account` had at a specific moment in the past. If the `clock()` is configured to use block numbers, this will return the value at the end of the corresponding block. Requirements: - `timepoint` must be in the past. If operating using block numbers, the block must be already mined."
      },
      "getRoleAdmin(bytes32)": {
        "details": "Returns the admin role that controls `role`. See {grantRole} and {revokeRole}. To change a role's admin, use {_setRoleAdmin}."
      },
      "getVotes(address)": {
        "details": "Returns the current amount of votes that `account` has."
      },
      "grantRole(bytes32,address)": {
        "details": "Grants `role` to `account`. If `account` had not been already granted `role`, emits a {RoleGranted} event. Requirements: - the caller must have ``role``'s admin role. May emit a {RoleGranted} event."
      },
      "hasRole(bytes32,address)": {
        "details": "Returns `true` if `account` has been granted `role`."
      },
      "isApprovedForAll(address,address)": {
        "details": "See {IERC721-isApprovedForAll}."
      },
      "name()": {
        "details": "See {IERC721Metadata-name}."
      },
      "nonces(address)": {
        "details": "Returns an address nonce."
      },
      "ownerOf(uint256)": {
        "details": "See {IERC721-ownerOf}."
      },
      "renounceRole(bytes32,address)": {
        "details": "Revokes `role` from the calling account. Roles are often managed via {grantRole} and {revokeRole}: this function's purpose is to provide a mechanism for accounts to lose their privileges if they are compromised (such as when a trusted device is misplaced). If the calling account had been revoked `role`, emits a {RoleRevoked} event. Requirements: - the caller must be `account`. May emit a {RoleRevoked} event."
      },
      "revokeRole(bytes32,address)": {
        "details": "Revokes `role` from `account`. If `account` had been granted `role`, emits a {RoleRevoked} event. Requirements: - the caller must have ``role``'s admin role. May emit a {RoleRevoked} event."
      },
      "safeTransferFrom(address,address,uint256)": {
        "details": "See {IERC721-safeTransferFrom}."
      },
      "safeTransferFrom(address,address,uint256,bytes)": {
        "details": "See {IERC721-safeTransferFrom}."
      },
      "setApprovalForAll(address,bool)": {
        "details": "See {IERC721-setApprovalForAll}."
      },
      "setLimitedMode(bool)": {
        "details": "turns off or on limited mode",
        "params": {
          "_limitedMode": "boolean value"
        }
      },
      "symbol()": {
        "details": "See {IERC721Metadata-symbol}."
      },
      "tokenURI(uint256)": {
        "details": "See {IERC721Metadata-tokenURI}."
      },
      "transferFrom(address,address,uint256)": {
        "details": "See {IERC721-transferFrom}."
      }
    },
    "version": 1
  },
  "userdoc": {
    "kind": "user",
    "methods": {},
    "version": 1
  },
  "storageLayout": {
    "storage": [
      {
        "astId": 3603,
        "contract": "contracts/DeCapVote.sol:DeCapVote",
        "label": "_name",
        "offset": 0,
        "slot": "0",
        "type": "t_string_storage"
      },
      {
        "astId": 3605,
        "contract": "contracts/DeCapVote.sol:DeCapVote",
        "label": "_symbol",
        "offset": 0,
        "slot": "1",
        "type": "t_string_storage"
      },
      {
        "astId": 3609,
        "contract": "contracts/DeCapVote.sol:DeCapVote",
        "label": "_owners",
        "offset": 0,
        "slot": "2",
        "type": "t_mapping(t_uint256,t_address)"
      },
      {
        "astId": 3613,
        "contract": "contracts/DeCapVote.sol:DeCapVote",
        "label": "_balances",
        "offset": 0,
        "slot": "3",
        "type": "t_mapping(t_address,t_uint256)"
      },
      {
        "astId": 3617,
        "contract": "contracts/DeCapVote.sol:DeCapVote",
        "label": "_tokenApprovals",
        "offset": 0,
        "slot": "4",
        "type": "t_mapping(t_uint256,t_address)"
      },
      {
        "astId": 3623,
        "contract": "contracts/DeCapVote.sol:DeCapVote",
        "label": "_operatorApprovals",
        "offset": 0,
        "slot": "5",
        "type": "t_mapping(t_address,t_mapping(t_address,t_bool))"
      },
      {
        "astId": 7639,
        "contract": "contracts/DeCapVote.sol:DeCapVote",
        "label": "_nameFallback",
        "offset": 0,
        "slot": "6",
        "type": "t_string_storage"
      },
      {
        "astId": 7641,
        "contract": "contracts/DeCapVote.sol:DeCapVote",
        "label": "_versionFallback",
        "offset": 0,
        "slot": "7",
        "type": "t_string_storage"
      },
      {
        "astId": 2964,
        "contract": "contracts/DeCapVote.sol:DeCapVote",
        "label": "_delegation",
        "offset": 0,
        "slot": "8",
        "type": "t_mapping(t_address,t_address)"
      },
      {
        "astId": 2970,
        "contract": "contracts/DeCapVote.sol:DeCapVote",
        "label": "_delegateCheckpoints",
        "offset": 0,
        "slot": "9",
        "type": "t_mapping(t_address,t_struct(Trace224)5589_storage)"
      },
      {
        "astId": 2974,
        "contract": "contracts/DeCapVote.sol:DeCapVote",
        "label": "_totalCheckpoints",
        "offset": 0,
        "slot": "10",
        "type": "t_struct(Trace224)5589_storage"
      },
      {
        "astId": 2979,
        "contract": "contracts/DeCapVote.sol:DeCapVote",
        "label": "_nonces",
        "offset": 0,
        "slot": "11",
        "type": "t_mapping(t_address,t_struct(Counter)6617_storage)"
      },
      {
        "astId": 24,
        "contract": "contracts/DeCapVote.sol:DeCapVote",
        "label": "_roles",
        "offset": 0,
        "slot": "12",
        "type": "t_mapping(t_bytes32,t_struct(RoleData)19_storage)"
      },
      {
        "astId": 10818,
        "contract": "contracts/DeCapVote.sol:DeCapVote",
        "label": "_tokenDetails",
        "offset": 0,
        "slot": "13",
        "type": "t_mapping(t_uint256,t_struct(TokenDetails)10813_storage)"
      },
      {
        "astId": 10822,
        "contract": "contracts/DeCapVote.sol:DeCapVote",
        "label": "_tokenId",
        "offset": 0,
        "slot": "14",
        "type": "t_mapping(t_bytes32,t_uint256)"
      },
      {
        "astId": 10824,
        "contract": "contracts/DeCapVote.sol:DeCapVote",
        "label": "limitedMode",
        "offset": 0,
        "slot": "15",
        "type": "t_bool"
      },
      {
        "astId": 10826,
        "contract": "contracts/DeCapVote.sol:DeCapVote",
        "label": "openVote",
        "offset": 1,
        "slot": "15",
        "type": "t_bool"
      },
      {
        "astId": 10829,
        "contract": "contracts/DeCapVote.sol:DeCapVote",
        "label": "_numOfUniqueTokens",
        "offset": 0,
        "slot": "16",
        "type": "t_struct(Counter)6617_storage"
      }
    ],
    "types": {
      "t_address": {
        "encoding": "inplace",
        "label": "address",
        "numberOfBytes": "20"
      },
      "t_array(t_struct(Checkpoint224)5594_storage)dyn_storage": {
        "base": "t_struct(Checkpoint224)5594_storage",
        "encoding": "dynamic_array",
        "label": "struct Checkpoints.Checkpoint224[]",
        "numberOfBytes": "32"
      },
      "t_bool": {
        "encoding": "inplace",
        "label": "bool",
        "numberOfBytes": "1"
      },
      "t_bytes32": {
        "encoding": "inplace",
        "label": "bytes32",
        "numberOfBytes": "32"
      },
      "t_mapping(t_address,t_address)": {
        "encoding": "mapping",
        "key": "t_address",
        "label": "mapping(address => address)",
        "numberOfBytes": "32",
        "value": "t_address"
      },
      "t_mapping(t_address,t_bool)": {
        "encoding": "mapping",
        "key": "t_address",
        "label": "mapping(address => bool)",
        "numberOfBytes": "32",
        "value": "t_bool"
      },
      "t_mapping(t_address,t_mapping(t_address,t_bool))": {
        "encoding": "mapping",
        "key": "t_address",
        "label": "mapping(address => mapping(address => bool))",
        "numberOfBytes": "32",
        "value": "t_mapping(t_address,t_bool)"
      },
      "t_mapping(t_address,t_struct(Counter)6617_storage)": {
        "encoding": "mapping",
        "key": "t_address",
        "label": "mapping(address => struct Counters.Counter)",
        "numberOfBytes": "32",
        "value": "t_struct(Counter)6617_storage"
      },
      "t_mapping(t_address,t_struct(Trace224)5589_storage)": {
        "encoding": "mapping",
        "key": "t_address",
        "label": "mapping(address => struct Checkpoints.Trace224)",
        "numberOfBytes": "32",
        "value": "t_struct(Trace224)5589_storage"
      },
      "t_mapping(t_address,t_uint256)": {
        "encoding": "mapping",
        "key": "t_address",
        "label": "mapping(address => uint256)",
        "numberOfBytes": "32",
        "value": "t_uint256"
      },
      "t_mapping(t_bytes32,t_struct(RoleData)19_storage)": {
        "encoding": "mapping",
        "key": "t_bytes32",
        "label": "mapping(bytes32 => struct AccessControl.RoleData)",
        "numberOfBytes": "32",
        "value": "t_struct(RoleData)19_storage"
      },
      "t_mapping(t_bytes32,t_uint256)": {
        "encoding": "mapping",
        "key": "t_bytes32",
        "label": "mapping(bytes32 => uint256)",
        "numberOfBytes": "32",
        "value": "t_uint256"
      },
      "t_mapping(t_uint256,t_address)": {
        "encoding": "mapping",
        "key": "t_uint256",
        "label": "mapping(uint256 => address)",
        "numberOfBytes": "32",
        "value": "t_address"
      },
      "t_mapping(t_uint256,t_struct(TokenDetails)10813_storage)": {
        "encoding": "mapping",
        "key": "t_uint256",
        "label": "mapping(uint256 => struct DeCapVote.TokenDetails)",
        "numberOfBytes": "32",
        "value": "t_struct(TokenDetails)10813_storage"
      },
      "t_string_storage": {
        "encoding": "bytes",
        "label": "string",
        "numberOfBytes": "32"
      },
      "t_struct(Checkpoint224)5594_storage": {
        "encoding": "inplace",
        "label": "struct Checkpoints.Checkpoint224",
        "members": [
          {
            "astId": 5591,
            "contract": "contracts/DeCapVote.sol:DeCapVote",
            "label": "_key",
            "offset": 0,
            "slot": "0",
            "type": "t_uint32"
          },
          {
            "astId": 5593,
            "contract": "contracts/DeCapVote.sol:DeCapVote",
            "label": "_value",
            "offset": 4,
            "slot": "0",
            "type": "t_uint224"
          }
        ],
        "numberOfBytes": "32"
      },
      "t_struct(Counter)6617_storage": {
        "encoding": "inplace",
        "label": "struct Counters.Counter",
        "members": [
          {
            "astId": 6616,
            "contract": "contracts/DeCapVote.sol:DeCapVote",
            "label": "_value",
            "offset": 0,
            "slot": "0",
            "type": "t_uint256"
          }
        ],
        "numberOfBytes": "32"
      },
      "t_struct(RoleData)19_storage": {
        "encoding": "inplace",
        "label": "struct AccessControl.RoleData",
        "members": [
          {
            "astId": 16,
            "contract": "contracts/DeCapVote.sol:DeCapVote",
            "label": "members",
            "offset": 0,
            "slot": "0",
            "type": "t_mapping(t_address,t_bool)"
          },
          {
            "astId": 18,
            "contract": "contracts/DeCapVote.sol:DeCapVote",
            "label": "adminRole",
            "offset": 0,
            "slot": "1",
            "type": "t_bytes32"
          }
        ],
        "numberOfBytes": "64"
      },
      "t_struct(TokenDetails)10813_storage": {
        "encoding": "inplace",
        "label": "struct DeCapVote.TokenDetails",
        "members": [
          {
            "astId": 10812,
            "contract": "contracts/DeCapVote.sol:DeCapVote",
            "label": "hash",
            "offset": 0,
            "slot": "0",
            "type": "t_bytes32"
          }
        ],
        "numberOfBytes": "32"
      },
      "t_struct(Trace224)5589_storage": {
        "encoding": "inplace",
        "label": "struct Checkpoints.Trace224",
        "members": [
          {
            "astId": 5588,
            "contract": "contracts/DeCapVote.sol:DeCapVote",
            "label": "_checkpoints",
            "offset": 0,
            "slot": "0",
            "type": "t_array(t_struct(Checkpoint224)5594_storage)dyn_storage"
          }
        ],
        "numberOfBytes": "32"
      },
      "t_uint224": {
        "encoding": "inplace",
        "label": "uint224",
        "numberOfBytes": "28"
      },
      "t_uint256": {
        "encoding": "inplace",
        "label": "uint256",
        "numberOfBytes": "32"
      },
      "t_uint32": {
        "encoding": "inplace",
        "label": "uint32",
        "numberOfBytes": "4"
      }
    }
  }
}